{
  "_format": "hh-sol-artifact-1",
  "contractName": "GameAward",
  "sourceName": "contracts/GameAward.sol",
  "abi": [
    {
      "anonymous": false,
      "inputs": [
        {
          "indexed": true,
          "internalType": "address",
          "name": "previousOwner",
          "type": "address"
        },
        {
          "indexed": true,
          "internalType": "address",
          "name": "newOwner",
          "type": "address"
        }
      ],
      "name": "OwnershipTransferred",
      "type": "event"
    },
    {
      "inputs": [
        {
          "internalType": "uint256",
          "name": "",
          "type": "uint256"
        }
      ],
      "name": "games",
      "outputs": [
        {
          "internalType": "string",
          "name": "id",
          "type": "string"
        },
        {
          "internalType": "string",
          "name": "name",
          "type": "string"
        },
        {
          "internalType": "string",
          "name": "platform",
          "type": "string"
        },
        {
          "internalType": "string",
          "name": "price",
          "type": "string"
        },
        {
          "internalType": "string",
          "name": "description",
          "type": "string"
        },
        {
          "internalType": "string",
          "name": "release",
          "type": "string"
        },
        {
          "internalType": "string",
          "name": "url",
          "type": "string"
        },
        {
          "internalType": "address",
          "name": "originUserAddress",
          "type": "address"
        }
      ],
      "stateMutability": "view",
      "type": "function"
    },
    {
      "inputs": [
        {
          "internalType": "uint256",
          "name": "",
          "type": "uint256"
        }
      ],
      "name": "juries",
      "outputs": [
        {
          "internalType": "string",
          "name": "username",
          "type": "string"
        },
        {
          "internalType": "address",
          "name": "walletAddress",
          "type": "address"
        }
      ],
      "stateMutability": "view",
      "type": "function"
    },
    {
      "inputs": [],
      "name": "owner",
      "outputs": [
        {
          "internalType": "address",
          "name": "",
          "type": "address"
        }
      ],
      "stateMutability": "view",
      "type": "function"
    },
    {
      "inputs": [],
      "name": "renounceOwnership",
      "outputs": [],
      "stateMutability": "nonpayable",
      "type": "function"
    },
    {
      "inputs": [
        {
          "internalType": "address",
          "name": "newOwner",
          "type": "address"
        }
      ],
      "name": "transferOwnership",
      "outputs": [],
      "stateMutability": "nonpayable",
      "type": "function"
    },
    {
      "inputs": [
        {
          "internalType": "address",
          "name": "",
          "type": "address"
        }
      ],
      "name": "voters",
      "outputs": [
        {
          "internalType": "bool",
          "name": "",
          "type": "bool"
        }
      ],
      "stateMutability": "view",
      "type": "function"
    }
  ],
  "bytecode": "0x608060405234801561001057600080fd5b5061002d61002261003260201b60201c565b61003a60201b60201c565b6100fe565b600033905090565b60008060009054906101000a900473ffffffffffffffffffffffffffffffffffffffff169050816000806101000a81548173ffffffffffffffffffffffffffffffffffffffff021916908373ffffffffffffffffffffffffffffffffffffffff1602179055508173ffffffffffffffffffffffffffffffffffffffff168173ffffffffffffffffffffffffffffffffffffffff167f8be0079c531659141344cd1fd0a4f28419497f9722a3daafe3b4186f6b6457e060405160405180910390a35050565b610ccf8061010d6000396000f3fe608060405234801561001057600080fd5b50600436106100625760003560e01c8063117a5b9014610067578063715018a61461009e5780638da5cb5b146100a8578063a3ec138d146100c6578063a97141a4146100f6578063f2fde38b14610127575b600080fd5b610081600480360381019061007c91906108b4565b610143565b6040516100959897969594939291906109b2565b60405180910390f35b6100a6610573565b005b6100b0610587565b6040516100bd9190610a61565b60405180910390f35b6100e060048036038101906100db9190610aa8565b6105b0565b6040516100ed9190610af0565b60405180910390f35b610110600480360381019061010b91906108b4565b6105d0565b60405161011e929190610b0b565b60405180910390f35b610141600480360381019061013c9190610aa8565b6106ac565b005b6001818154811061015357600080fd5b906000526020600020906008020160009150905080600001805461017690610b6a565b80601f01602080910402602001604051908101604052809291908181526020018280546101a290610b6a565b80156101ef5780601f106101c4576101008083540402835291602001916101ef565b820191906000526020600020905b8154815290600101906020018083116101d257829003601f168201915b50505050509080600101805461020490610b6a565b80601f016020809104026020016040519081016040528092919081815260200182805461023090610b6a565b801561027d5780601f106102525761010080835404028352916020019161027d565b820191906000526020600020905b81548152906001019060200180831161026057829003601f168201915b50505050509080600201805461029290610b6a565b80601f01602080910402602001604051908101604052809291908181526020018280546102be90610b6a565b801561030b5780601f106102e05761010080835404028352916020019161030b565b820191906000526020600020905b8154815290600101906020018083116102ee57829003601f168201915b50505050509080600301805461032090610b6a565b80601f016020809104026020016040519081016040528092919081815260200182805461034c90610b6a565b80156103995780601f1061036e57610100808354040283529160200191610399565b820191906000526020600020905b81548152906001019060200180831161037c57829003601f168201915b5050505050908060040180546103ae90610b6a565b80601f01602080910402602001604051908101604052809291908181526020018280546103da90610b6a565b80156104275780601f106103fc57610100808354040283529160200191610427565b820191906000526020600020905b81548152906001019060200180831161040a57829003601f168201915b50505050509080600501805461043c90610b6a565b80601f016020809104026020016040519081016040528092919081815260200182805461046890610b6a565b80156104b55780601f1061048a576101008083540402835291602001916104b5565b820191906000526020600020905b81548152906001019060200180831161049857829003601f168201915b5050505050908060060180546104ca90610b6a565b80601f01602080910402602001604051908101604052809291908181526020018280546104f690610b6a565b80156105435780601f1061051857610100808354040283529160200191610543565b820191906000526020600020905b81548152906001019060200180831161052657829003601f168201915b5050505050908060070160009054906101000a900473ffffffffffffffffffffffffffffffffffffffff16905088565b61057b61072f565b61058560006107ad565b565b60008060009054906101000a900473ffffffffffffffffffffffffffffffffffffffff16905090565b60036020528060005260406000206000915054906101000a900460ff1681565b600281815481106105e057600080fd5b906000526020600020906002020160009150905080600001805461060390610b6a565b80601f016020809104026020016040519081016040528092919081815260200182805461062f90610b6a565b801561067c5780601f106106515761010080835404028352916020019161067c565b820191906000526020600020905b81548152906001019060200180831161065f57829003601f168201915b5050505050908060010160009054906101000a900473ffffffffffffffffffffffffffffffffffffffff16905082565b6106b461072f565b600073ffffffffffffffffffffffffffffffffffffffff168173ffffffffffffffffffffffffffffffffffffffff1603610723576040517f08c379a000000000000000000000000000000000000000000000000000000000815260040161071a90610c0d565b60405180910390fd5b61072c816107ad565b50565b610737610871565b73ffffffffffffffffffffffffffffffffffffffff16610755610587565b73ffffffffffffffffffffffffffffffffffffffff16146107ab576040517f08c379a00000000000000000000000000000000000000000000000000000000081526004016107a290610c79565b60405180910390fd5b565b60008060009054906101000a900473ffffffffffffffffffffffffffffffffffffffff169050816000806101000a81548173ffffffffffffffffffffffffffffffffffffffff021916908373ffffffffffffffffffffffffffffffffffffffff1602179055508173ffffffffffffffffffffffffffffffffffffffff168173ffffffffffffffffffffffffffffffffffffffff167f8be0079c531659141344cd1fd0a4f28419497f9722a3daafe3b4186f6b6457e060405160405180910390a35050565b600033905090565b600080fd5b6000819050919050565b6108918161087e565b811461089c57600080fd5b50565b6000813590506108ae81610888565b92915050565b6000602082840312156108ca576108c9610879565b5b60006108d88482850161089f565b91505092915050565b600081519050919050565b600082825260208201905092915050565b60005b8381101561091b578082015181840152602081019050610900565b60008484015250505050565b6000601f19601f8301169050919050565b6000610943826108e1565b61094d81856108ec565b935061095d8185602086016108fd565b61096681610927565b840191505092915050565b600073ffffffffffffffffffffffffffffffffffffffff82169050919050565b600061099c82610971565b9050919050565b6109ac81610991565b82525050565b60006101008201905081810360008301526109cd818b610938565b905081810360208301526109e1818a610938565b905081810360408301526109f58189610938565b90508181036060830152610a098188610938565b90508181036080830152610a1d8187610938565b905081810360a0830152610a318186610938565b905081810360c0830152610a458185610938565b9050610a5460e08301846109a3565b9998505050505050505050565b6000602082019050610a7660008301846109a3565b92915050565b610a8581610991565b8114610a9057600080fd5b50565b600081359050610aa281610a7c565b92915050565b600060208284031215610abe57610abd610879565b5b6000610acc84828501610a93565b91505092915050565b60008115159050919050565b610aea81610ad5565b82525050565b6000602082019050610b056000830184610ae1565b92915050565b60006040820190508181036000830152610b258185610938565b9050610b3460208301846109a3565b9392505050565b7f4e487b7100000000000000000000000000000000000000000000000000000000600052602260045260246000fd5b60006002820490506001821680610b8257607f821691505b602082108103610b9557610b94610b3b565b5b50919050565b7f4f776e61626c653a206e6577206f776e657220697320746865207a65726f206160008201527f6464726573730000000000000000000000000000000000000000000000000000602082015250565b6000610bf76026836108ec565b9150610c0282610b9b565b604082019050919050565b60006020820190508181036000830152610c2681610bea565b9050919050565b7f4f776e61626c653a2063616c6c6572206973206e6f7420746865206f776e6572600082015250565b6000610c636020836108ec565b9150610c6e82610c2d565b602082019050919050565b60006020820190508181036000830152610c9281610c56565b905091905056fea2646970667358221220a34d4904385e8214e22d238a30b795b2a9e3b8d8c101673c3d7de17a2c1f1a0264736f6c63430008110033",
  "linkReferences": {},
  "deployedLinkReferences": {}
}