{
  "_format": "hh-sol-artifact-1",
  "contractName": "GameAward",
  "sourceName": "contracts/GameAward.sol",
  "abi": [
    {
      "inputs": [
        {
          "internalType": "uint256",
          "name": "_roundSessionNumber",
          "type": "uint256"
        }
      ],
      "stateMutability": "nonpayable",
      "type": "constructor"
    },
    {
      "anonymous": false,
      "inputs": [
        {
          "indexed": true,
          "internalType": "address",
          "name": "previousOwner",
          "type": "address"
        },
        {
          "indexed": true,
          "internalType": "address",
          "name": "newOwner",
          "type": "address"
        }
      ],
      "name": "OwnershipTransferred",
      "type": "event"
    },
    {
      "inputs": [
        {
          "internalType": "string",
          "name": "_name",
          "type": "string"
        },
        {
          "internalType": "string",
          "name": "_platform",
          "type": "string"
        },
        {
          "internalType": "string",
          "name": "_price",
          "type": "string"
        },
        {
          "internalType": "string",
          "name": "_description",
          "type": "string"
        },
        {
          "internalType": "string",
          "name": "_release",
          "type": "string"
        },
        {
          "internalType": "string",
          "name": "_url",
          "type": "string"
        }
      ],
      "name": "addGame",
      "outputs": [],
      "stateMutability": "nonpayable",
      "type": "function"
    },
    {
      "inputs": [
        {
          "internalType": "address",
          "name": "addr",
          "type": "address"
        },
        {
          "internalType": "string",
          "name": "_name",
          "type": "string"
        },
        {
          "internalType": "string",
          "name": "_pictureUr",
          "type": "string"
        }
      ],
      "name": "addJuryMember",
      "outputs": [],
      "stateMutability": "nonpayable",
      "type": "function"
    },
    {
      "inputs": [],
      "name": "createVoteSession",
      "outputs": [],
      "stateMutability": "nonpayable",
      "type": "function"
    },
    {
      "inputs": [],
      "name": "gameId",
      "outputs": [
        {
          "internalType": "uint256",
          "name": "",
          "type": "uint256"
        }
      ],
      "stateMutability": "view",
      "type": "function"
    },
    {
      "inputs": [
        {
          "internalType": "uint256",
          "name": "",
          "type": "uint256"
        }
      ],
      "name": "games",
      "outputs": [
        {
          "internalType": "uint256",
          "name": "id",
          "type": "uint256"
        },
        {
          "internalType": "string",
          "name": "name",
          "type": "string"
        },
        {
          "internalType": "string",
          "name": "platform",
          "type": "string"
        },
        {
          "internalType": "string",
          "name": "price",
          "type": "string"
        },
        {
          "internalType": "string",
          "name": "description",
          "type": "string"
        },
        {
          "internalType": "string",
          "name": "release",
          "type": "string"
        },
        {
          "internalType": "string",
          "name": "url",
          "type": "string"
        },
        {
          "internalType": "address",
          "name": "originUserAddress",
          "type": "address"
        }
      ],
      "stateMutability": "view",
      "type": "function"
    },
    {
      "inputs": [],
      "name": "getAllGames",
      "outputs": [
        {
          "components": [
            {
              "internalType": "uint256",
              "name": "id",
              "type": "uint256"
            },
            {
              "internalType": "string",
              "name": "name",
              "type": "string"
            },
            {
              "internalType": "string",
              "name": "platform",
              "type": "string"
            },
            {
              "internalType": "string",
              "name": "price",
              "type": "string"
            },
            {
              "internalType": "string",
              "name": "description",
              "type": "string"
            },
            {
              "internalType": "string",
              "name": "release",
              "type": "string"
            },
            {
              "internalType": "string",
              "name": "url",
              "type": "string"
            },
            {
              "internalType": "address",
              "name": "originUserAddress",
              "type": "address"
            }
          ],
          "internalType": "struct GameAward.Game[]",
          "name": "",
          "type": "tuple[]"
        }
      ],
      "stateMutability": "view",
      "type": "function"
    },
    {
      "inputs": [
        {
          "internalType": "uint256",
          "name": "_voteSessionId",
          "type": "uint256"
        }
      ],
      "name": "getCurrentRound",
      "outputs": [
        {
          "internalType": "uint256",
          "name": "",
          "type": "uint256"
        }
      ],
      "stateMutability": "view",
      "type": "function"
    },
    {
      "inputs": [
        {
          "internalType": "uint256",
          "name": "_voteSessionId",
          "type": "uint256"
        },
        {
          "internalType": "uint256",
          "name": "round",
          "type": "uint256"
        }
      ],
      "name": "getCurrentRoundLeadingGames",
      "outputs": [
        {
          "components": [
            {
              "components": [
                {
                  "internalType": "uint256",
                  "name": "id",
                  "type": "uint256"
                },
                {
                  "internalType": "string",
                  "name": "name",
                  "type": "string"
                },
                {
                  "internalType": "string",
                  "name": "platform",
                  "type": "string"
                },
                {
                  "internalType": "string",
                  "name": "price",
                  "type": "string"
                },
                {
                  "internalType": "string",
                  "name": "description",
                  "type": "string"
                },
                {
                  "internalType": "string",
                  "name": "release",
                  "type": "string"
                },
                {
                  "internalType": "string",
                  "name": "url",
                  "type": "string"
                },
                {
                  "internalType": "address",
                  "name": "originUserAddress",
                  "type": "address"
                }
              ],
              "internalType": "struct GameAward.Game",
              "name": "game",
              "type": "tuple"
            },
            {
              "internalType": "uint256",
              "name": "score",
              "type": "uint256"
            }
          ],
          "internalType": "struct GameAward.GameScore[]",
          "name": "",
          "type": "tuple[]"
        }
      ],
      "stateMutability": "nonpayable",
      "type": "function"
    },
    {
      "inputs": [
        {
          "internalType": "uint256",
          "name": "_voteSessionId",
          "type": "uint256"
        },
        {
          "internalType": "address",
          "name": "_userAddress",
          "type": "address"
        }
      ],
      "name": "getCurrentRoundVoteGameId",
      "outputs": [
        {
          "internalType": "uint256",
          "name": "",
          "type": "uint256"
        }
      ],
      "stateMutability": "view",
      "type": "function"
    },
    {
      "inputs": [],
      "name": "getCurrentVoteSessionId",
      "outputs": [
        {
          "internalType": "uint256",
          "name": "",
          "type": "uint256"
        }
      ],
      "stateMutability": "view",
      "type": "function"
    },
    {
      "inputs": [
        {
          "internalType": "uint256",
          "name": "_gameId",
          "type": "uint256"
        }
      ],
      "name": "getGameById",
      "outputs": [
        {
          "components": [
            {
              "internalType": "uint256",
              "name": "id",
              "type": "uint256"
            },
            {
              "internalType": "string",
              "name": "name",
              "type": "string"
            },
            {
              "internalType": "string",
              "name": "platform",
              "type": "string"
            },
            {
              "internalType": "string",
              "name": "price",
              "type": "string"
            },
            {
              "internalType": "string",
              "name": "description",
              "type": "string"
            },
            {
              "internalType": "string",
              "name": "release",
              "type": "string"
            },
            {
              "internalType": "string",
              "name": "url",
              "type": "string"
            },
            {
              "internalType": "address",
              "name": "originUserAddress",
              "type": "address"
            }
          ],
          "internalType": "struct GameAward.Game",
          "name": "",
          "type": "tuple"
        }
      ],
      "stateMutability": "view",
      "type": "function"
    },
    {
      "inputs": [
        {
          "components": [
            {
              "internalType": "uint256",
              "name": "id",
              "type": "uint256"
            },
            {
              "internalType": "string",
              "name": "name",
              "type": "string"
            },
            {
              "internalType": "string",
              "name": "platform",
              "type": "string"
            },
            {
              "internalType": "string",
              "name": "price",
              "type": "string"
            },
            {
              "internalType": "string",
              "name": "description",
              "type": "string"
            },
            {
              "internalType": "string",
              "name": "release",
              "type": "string"
            },
            {
              "internalType": "string",
              "name": "url",
              "type": "string"
            },
            {
              "internalType": "address",
              "name": "originUserAddress",
              "type": "address"
            }
          ],
          "internalType": "struct GameAward.Game[]",
          "name": "gameList",
          "type": "tuple[]"
        }
      ],
      "name": "getGameIds",
      "outputs": [
        {
          "internalType": "uint256[]",
          "name": "",
          "type": "uint256[]"
        }
      ],
      "stateMutability": "view",
      "type": "function"
    },
    {
      "inputs": [
        {
          "internalType": "uint256",
          "name": "_voteSessionId",
          "type": "uint256"
        }
      ],
      "name": "getGameWinner",
      "outputs": [
        {
          "components": [
            {
              "internalType": "uint256",
              "name": "id",
              "type": "uint256"
            },
            {
              "internalType": "string",
              "name": "name",
              "type": "string"
            },
            {
              "internalType": "string",
              "name": "platform",
              "type": "string"
            },
            {
              "internalType": "string",
              "name": "price",
              "type": "string"
            },
            {
              "internalType": "string",
              "name": "description",
              "type": "string"
            },
            {
              "internalType": "string",
              "name": "release",
              "type": "string"
            },
            {
              "internalType": "string",
              "name": "url",
              "type": "string"
            },
            {
              "internalType": "address",
              "name": "originUserAddress",
              "type": "address"
            }
          ],
          "internalType": "struct GameAward.Game",
          "name": "",
          "type": "tuple"
        }
      ],
      "stateMutability": "nonpayable",
      "type": "function"
    },
    {
      "inputs": [],
      "name": "getJuries",
      "outputs": [
        {
          "components": [
            {
              "internalType": "string",
              "name": "username",
              "type": "string"
            },
            {
              "internalType": "address",
              "name": "walletAddress",
              "type": "address"
            },
            {
              "internalType": "string",
              "name": "pictureUrl",
              "type": "string"
            }
          ],
          "internalType": "struct GameAward.Jury[]",
          "name": "",
          "type": "tuple[]"
        }
      ],
      "stateMutability": "view",
      "type": "function"
    },
    {
      "inputs": [],
      "name": "getLastVoteSessionId",
      "outputs": [
        {
          "internalType": "uint256",
          "name": "",
          "type": "uint256"
        }
      ],
      "stateMutability": "view",
      "type": "function"
    },
    {
      "inputs": [
        {
          "internalType": "uint256",
          "name": "_voteSessionId",
          "type": "uint256"
        }
      ],
      "name": "getRoundsResults",
      "outputs": [
        {
          "components": [
            {
              "internalType": "uint256",
              "name": "roundNumber",
              "type": "uint256"
            },
            {
              "components": [
                {
                  "components": [
                    {
                      "internalType": "uint256",
                      "name": "id",
                      "type": "uint256"
                    },
                    {
                      "internalType": "string",
                      "name": "name",
                      "type": "string"
                    },
                    {
                      "internalType": "string",
                      "name": "platform",
                      "type": "string"
                    },
                    {
                      "internalType": "string",
                      "name": "price",
                      "type": "string"
                    },
                    {
                      "internalType": "string",
                      "name": "description",
                      "type": "string"
                    },
                    {
                      "internalType": "string",
                      "name": "release",
                      "type": "string"
                    },
                    {
                      "internalType": "string",
                      "name": "url",
                      "type": "string"
                    },
                    {
                      "internalType": "address",
                      "name": "originUserAddress",
                      "type": "address"
                    }
                  ],
                  "internalType": "struct GameAward.Game",
                  "name": "game",
                  "type": "tuple"
                },
                {
                  "internalType": "uint256",
                  "name": "score",
                  "type": "uint256"
                }
              ],
              "internalType": "struct GameAward.GameScore[]",
              "name": "games",
              "type": "tuple[]"
            }
          ],
          "internalType": "struct GameAward.GameScoreRound[]",
          "name": "",
          "type": "tuple[]"
        }
      ],
      "stateMutability": "nonpayable",
      "type": "function"
    },
    {
      "inputs": [
        {
          "internalType": "uint256",
          "name": "_voteSessionId",
          "type": "uint256"
        }
      ],
      "name": "getVoteRoundGameIds",
      "outputs": [
        {
          "internalType": "uint256",
          "name": "",
          "type": "uint256"
        }
      ],
      "stateMutability": "view",
      "type": "function"
    },
    {
      "inputs": [
        {
          "internalType": "uint256",
          "name": "_voteSessionId",
          "type": "uint256"
        }
      ],
      "name": "getVoteSession",
      "outputs": [
        {
          "components": [
            {
              "internalType": "uint256",
              "name": "id",
              "type": "uint256"
            },
            {
              "internalType": "bool",
              "name": "started",
              "type": "bool"
            },
            {
              "internalType": "bool",
              "name": "ended",
              "type": "bool"
            },
            {
              "internalType": "uint256",
              "name": "rounds",
              "type": "uint256"
            },
            {
              "internalType": "uint256",
              "name": "currentRound",
              "type": "uint256"
            },
            {
              "internalType": "uint256",
              "name": "creationDate",
              "type": "uint256"
            },
            {
              "internalType": "uint256",
              "name": "startAt",
              "type": "uint256"
            }
          ],
          "internalType": "struct GameAward.VoteSession",
          "name": "",
          "type": "tuple"
        }
      ],
      "stateMutability": "view",
      "type": "function"
    },
    {
      "inputs": [],
      "name": "getVoteSessions",
      "outputs": [
        {
          "components": [
            {
              "internalType": "uint256",
              "name": "id",
              "type": "uint256"
            },
            {
              "internalType": "bool",
              "name": "started",
              "type": "bool"
            },
            {
              "internalType": "bool",
              "name": "ended",
              "type": "bool"
            },
            {
              "internalType": "uint256",
              "name": "rounds",
              "type": "uint256"
            },
            {
              "internalType": "uint256",
              "name": "currentRound",
              "type": "uint256"
            },
            {
              "internalType": "uint256",
              "name": "creationDate",
              "type": "uint256"
            },
            {
              "internalType": "uint256",
              "name": "startAt",
              "type": "uint256"
            }
          ],
          "internalType": "struct GameAward.VoteSession[]",
          "name": "",
          "type": "tuple[]"
        }
      ],
      "stateMutability": "view",
      "type": "function"
    },
    {
      "inputs": [
        {
          "internalType": "uint256",
          "name": "_voteSessionId",
          "type": "uint256"
        },
        {
          "internalType": "address",
          "name": "_userAddress",
          "type": "address"
        }
      ],
      "name": "hasVotedThisTurn",
      "outputs": [
        {
          "internalType": "bool",
          "name": "",
          "type": "bool"
        }
      ],
      "stateMutability": "view",
      "type": "function"
    },
    {
      "inputs": [],
      "name": "isOwner",
      "outputs": [
        {
          "internalType": "bool",
          "name": "",
          "type": "bool"
        }
      ],
      "stateMutability": "view",
      "type": "function"
    },
    {
      "inputs": [
        {
          "internalType": "uint256",
          "name": "",
          "type": "uint256"
        }
      ],
      "name": "juries",
      "outputs": [
        {
          "internalType": "string",
          "name": "username",
          "type": "string"
        },
        {
          "internalType": "address",
          "name": "walletAddress",
          "type": "address"
        },
        {
          "internalType": "string",
          "name": "pictureUrl",
          "type": "string"
        }
      ],
      "stateMutability": "view",
      "type": "function"
    },
    {
      "inputs": [
        {
          "internalType": "address",
          "name": "",
          "type": "address"
        }
      ],
      "name": "juryMembers",
      "outputs": [
        {
          "internalType": "bool",
          "name": "",
          "type": "bool"
        }
      ],
      "stateMutability": "view",
      "type": "function"
    },
    {
      "inputs": [
        {
          "internalType": "address",
          "name": "",
          "type": "address"
        }
      ],
      "name": "juryMembersData",
      "outputs": [
        {
          "internalType": "string",
          "name": "username",
          "type": "string"
        },
        {
          "internalType": "address",
          "name": "walletAddress",
          "type": "address"
        },
        {
          "internalType": "string",
          "name": "pictureUrl",
          "type": "string"
        }
      ],
      "stateMutability": "view",
      "type": "function"
    },
    {
      "inputs": [],
      "name": "owner",
      "outputs": [
        {
          "internalType": "address",
          "name": "",
          "type": "address"
        }
      ],
      "stateMutability": "view",
      "type": "function"
    },
    {
      "inputs": [
        {
          "internalType": "uint256",
          "name": "_voteSessionId",
          "type": "uint256"
        }
      ],
      "name": "passToNextRound",
      "outputs": [],
      "stateMutability": "nonpayable",
      "type": "function"
    },
    {
      "inputs": [
        {
          "internalType": "address",
          "name": "addr",
          "type": "address"
        }
      ],
      "name": "removeJuryMember",
      "outputs": [],
      "stateMutability": "nonpayable",
      "type": "function"
    },
    {
      "inputs": [],
      "name": "renounceOwnership",
      "outputs": [],
      "stateMutability": "nonpayable",
      "type": "function"
    },
    {
      "inputs": [],
      "name": "roundId",
      "outputs": [
        {
          "internalType": "uint256",
          "name": "",
          "type": "uint256"
        }
      ],
      "stateMutability": "view",
      "type": "function"
    },
    {
      "inputs": [],
      "name": "roundSessionNumber",
      "outputs": [
        {
          "internalType": "uint256",
          "name": "",
          "type": "uint256"
        }
      ],
      "stateMutability": "view",
      "type": "function"
    },
    {
      "inputs": [
        {
          "internalType": "uint256",
          "name": "",
          "type": "uint256"
        }
      ],
      "name": "sessionsIds",
      "outputs": [
        {
          "internalType": "uint256",
          "name": "",
          "type": "uint256"
        }
      ],
      "stateMutability": "view",
      "type": "function"
    },
    {
      "inputs": [
        {
          "internalType": "uint256",
          "name": "_voteSessionId",
          "type": "uint256"
        }
      ],
      "name": "startVoteSession",
      "outputs": [],
      "stateMutability": "nonpayable",
      "type": "function"
    },
    {
      "inputs": [
        {
          "internalType": "address",
          "name": "newOwner",
          "type": "address"
        }
      ],
      "name": "transferOwnership",
      "outputs": [],
      "stateMutability": "nonpayable",
      "type": "function"
    },
    {
      "inputs": [
        {
          "internalType": "uint256",
          "name": "_voteSessionId",
          "type": "uint256"
        },
        {
          "internalType": "uint256",
          "name": "_gameId",
          "type": "uint256"
        }
      ],
      "name": "vote",
      "outputs": [],
      "stateMutability": "nonpayable",
      "type": "function"
    },
    {
      "inputs": [],
      "name": "voteSessionId",
      "outputs": [
        {
          "internalType": "uint256",
          "name": "",
          "type": "uint256"
        }
      ],
      "stateMutability": "view",
      "type": "function"
    },
    {
      "inputs": [
        {
          "internalType": "uint256",
          "name": "",
          "type": "uint256"
        }
      ],
      "name": "voteSessions",
      "outputs": [
        {
          "internalType": "uint256",
          "name": "id",
          "type": "uint256"
        },
        {
          "internalType": "bool",
          "name": "started",
          "type": "bool"
        },
        {
          "internalType": "bool",
          "name": "ended",
          "type": "bool"
        },
        {
          "internalType": "uint256",
          "name": "rounds",
          "type": "uint256"
        },
        {
          "internalType": "uint256",
          "name": "currentRound",
          "type": "uint256"
        },
        {
          "internalType": "uint256",
          "name": "creationDate",
          "type": "uint256"
        },
        {
          "internalType": "uint256",
          "name": "startAt",
          "type": "uint256"
        }
      ],
      "stateMutability": "view",
      "type": "function"
    }
  ],
  "bytecode": "0x60806040523480156200001157600080fd5b506040516200652e3803806200652e8339818101604052810190620000379190620001a2565b620000576200004b6200009660201b60201c565b6200009e60201b60201c565b60016004819055506001600c819055506001600d819055506000811115620000865780600b819055506200008f565b6002600b819055505b50620001d4565b600033905090565b60008060009054906101000a900473ffffffffffffffffffffffffffffffffffffffff169050816000806101000a81548173ffffffffffffffffffffffffffffffffffffffff021916908373ffffffffffffffffffffffffffffffffffffffff1602179055508173ffffffffffffffffffffffffffffffffffffffff168173ffffffffffffffffffffffffffffffffffffffff167f8be0079c531659141344cd1fd0a4f28419497f9722a3daafe3b4186f6b6457e060405160405180910390a35050565b600080fd5b6000819050919050565b6200017c8162000167565b81146200018857600080fd5b50565b6000815190506200019c8162000171565b92915050565b600060208284031215620001bb57620001ba62000162565b5b6000620001cb848285016200018b565b91505092915050565b61634a80620001e46000396000f3fe608060405234801561001057600080fd5b506004361061021c5760003560e01c8063933820ae11610125578063c8f0b177116100ad578063ea6b5b3f1161007c578063ea6b5b3f146106b2578063f1ea2723146106ce578063f2fde38b146106ea578063fac20ab814610706578063fdaff77c146107365761021c565b8063c8f0b17714610616578063d27fb90414610646578063d7c81b5514610676578063db1c45f9146106945761021c565b8063b384abef116100f4578063b384abef14610574578063baba491814610590578063c021b262146105ac578063c601a1eb146105c8578063c7cd6054146105f85761021c565b8063933820ae146104d657806399e1ec1714610506578063a97141a414610524578063b1bd69ce146105565761021c565b80636ac6e77e116101a85780638cd221c9116101775780638cd221c91461042e5780638da5cb5b1461044c5780638ee520711461046a5780638f32d59b146104885780638fd1424f146104a65761021c565b80636ac6e77e14610392578063715018a6146103c4578063778021e4146103ce578063794c7157146103fe5761021c565b8063148b02c5116101ef578063148b02c5146102c8578063209173c9146102f85780633188a078146103285780633b728d4e1461035857806366164632146103745761021c565b806306caebb6146102215780630966051314610257578063117a5b9014610287578063126a8697146102be575b600080fd5b61023b60048036038101906102369190614239565b610754565b60405161024e9796959493929190614290565b60405180910390f35b610271600480360381019061026c9190614239565b6107b0565b60405161027e91906144b2565b60405180910390f35b6102a1600480360381019061029c9190614239565b610bb9565b6040516102b598979695949392919061452d565b60405180910390f35b6102c6610f61565b005b6102e260048036038101906102dd9190614239565b6115d0565b6040516102ef91906145d5565b60405180910390f35b610312600480360381019061030d919061461c565b6115f0565b60405161031f9190614649565b60405180910390f35b610342600480360381019061033d9190614239565b611610565b60405161034f9190614935565b60405180910390f35b610372600480360381019061036d9190614a8c565b611769565b005b61037c6119a1565b60405161038991906145d5565b60405180910390f35b6103ac60048036038101906103a7919061461c565b6119d8565b6040516103bb93929190614b17565b60405180910390f35b6103cc611b32565b005b6103e860048036038101906103e39190614239565b611b46565b6040516103f59190614bf9565b60405180910390f35b61041860048036038101906104139190614239565b611bdb565b60405161042591906145d5565b60405180910390f35b610436611bff565b60405161044391906145d5565b60405180910390f35b610454611c05565b6040516104619190614c14565b60405180910390f35b610472611c2e565b60405161047f9190614d48565b60405180910390f35b610490611e07565b60405161049d9190614649565b60405180910390f35b6104c060048036038101906104bb9190614fcc565b611e44565b6040516104cd91906150c4565b60405180910390f35b6104f060048036038101906104eb9190614239565b611efb565b6040516104fd91906145d5565b60405180910390f35b61050e611f0e565b60405161051b91906145d5565b60405180910390f35b61053e60048036038101906105399190614239565b611f14565b60405161054d93929190614b17565b60405180910390f35b61055e61207e565b60405161056b91906145d5565b60405180910390f35b61058e600480360381019061058991906150e6565b612088565b005b6105aa60048036038101906105a5919061461c565b612348565b005b6105c660048036038101906105c19190614239565b6125b5565b005b6105e260048036038101906105dd91906150e6565b61279f565b6040516105ef91906151ac565b60405180910390f35b61060061312b565b60405161060d91906145d5565b60405180910390f35b610630600480360381019061062b91906151ce565b613131565b60405161063d91906145d5565b60405180910390f35b610660600480360381019061065b91906151ce565b6132f5565b60405161066d9190614649565b60405180910390f35b61067e61331b565b60405161068b91906145d5565b60405180910390f35b61069c613321565b6040516106a991906152d0565b60405180910390f35b6106cc60048036038101906106c791906152f2565b61374d565b005b6106e860048036038101906106e39190614239565b6138c1565b005b61070460048036038101906106ff919061461c565b613ca5565b005b610720600480360381019061071b9190614239565b613d28565b60405161072d91906144b2565b60405180910390f35b61073e613dd9565b60405161074b9190615564565b60405180910390f35b60076020528060005260406000206000915090508060000154908060010160009054906101000a900460ff16908060010160019054906101000a900460ff16908060020154908060030154908060040154908060050154905087565b6107b861406f565b600582815481106107cc576107cb615586565b5b90600052602060002090600802016040518061010001604052908160008201548152602001600182018054610800906155e4565b80601f016020809104026020016040519081016040528092919081815260200182805461082c906155e4565b80156108795780601f1061084e57610100808354040283529160200191610879565b820191906000526020600020905b81548152906001019060200180831161085c57829003601f168201915b50505050508152602001600282018054610892906155e4565b80601f01602080910402602001604051908101604052809291908181526020018280546108be906155e4565b801561090b5780601f106108e05761010080835404028352916020019161090b565b820191906000526020600020905b8154815290600101906020018083116108ee57829003601f168201915b50505050508152602001600382018054610924906155e4565b80601f0160208091040260200160405190810160405280929190818152602001828054610950906155e4565b801561099d5780601f106109725761010080835404028352916020019161099d565b820191906000526020600020905b81548152906001019060200180831161098057829003601f168201915b505050505081526020016004820180546109b6906155e4565b80601f01602080910402602001604051908101604052809291908181526020018280546109e2906155e4565b8015610a2f5780601f10610a0457610100808354040283529160200191610a2f565b820191906000526020600020905b815481529060010190602001808311610a1257829003601f168201915b50505050508152602001600582018054610a48906155e4565b80601f0160208091040260200160405190810160405280929190818152602001828054610a74906155e4565b8015610ac15780601f10610a9657610100808354040283529160200191610ac1565b820191906000526020600020905b815481529060010190602001808311610aa457829003601f168201915b50505050508152602001600682018054610ada906155e4565b80601f0160208091040260200160405190810160405280929190818152602001828054610b06906155e4565b8015610b535780601f10610b2857610100808354040283529160200191610b53565b820191906000526020600020905b815481529060010190602001808311610b3657829003601f168201915b505050505081526020016007820160009054906101000a900473ffffffffffffffffffffffffffffffffffffffff1673ffffffffffffffffffffffffffffffffffffffff1673ffffffffffffffffffffffffffffffffffffffff16815250509050919050565b60058181548110610bc957600080fd5b9060005260206000209060080201600091509050806000015490806001018054610bf2906155e4565b80601f0160208091040260200160405190810160405280929190818152602001828054610c1e906155e4565b8015610c6b5780601f10610c4057610100808354040283529160200191610c6b565b820191906000526020600020905b815481529060010190602001808311610c4e57829003601f168201915b505050505090806002018054610c80906155e4565b80601f0160208091040260200160405190810160405280929190818152602001828054610cac906155e4565b8015610cf95780601f10610cce57610100808354040283529160200191610cf9565b820191906000526020600020905b815481529060010190602001808311610cdc57829003601f168201915b505050505090806003018054610d0e906155e4565b80601f0160208091040260200160405190810160405280929190818152602001828054610d3a906155e4565b8015610d875780601f10610d5c57610100808354040283529160200191610d87565b820191906000526020600020905b815481529060010190602001808311610d6a57829003601f168201915b505050505090806004018054610d9c906155e4565b80601f0160208091040260200160405190810160405280929190818152602001828054610dc8906155e4565b8015610e155780601f10610dea57610100808354040283529160200191610e15565b820191906000526020600020905b815481529060010190602001808311610df857829003601f168201915b505050505090806005018054610e2a906155e4565b80601f0160208091040260200160405190810160405280929190818152602001828054610e56906155e4565b8015610ea35780601f10610e7857610100808354040283529160200191610ea3565b820191906000526020600020905b815481529060010190602001808311610e8657829003601f168201915b505050505090806006018054610eb8906155e4565b80601f0160208091040260200160405190810160405280929190818152602001828054610ee4906155e4565b8015610f315780601f10610f0657610100808354040283529160200191610f31565b820191906000526020600020905b815481529060010190602001808311610f1457829003601f168201915b5050505050908060070160009054906101000a900473ffffffffffffffffffffffffffffffffffffffff16905088565b610f69613f25565b610f71611c05565b73ffffffffffffffffffffffffffffffffffffffff163373ffffffffffffffffffffffffffffffffffffffff1614610fde576040517f08c379a0000000000000000000000000000000000000000000000000000000008152600401610fd590615687565b60405180910390fd5b6006600c54908060018154018082558091505060019003906000526020600020016000909190919091505560086000600c5481526020019081526020016000206040518060800160405280600d548152602001600181526020016114656005805480602002602001604051908101604052809291908181526020016000905b8282101561145c5783829060005260206000209060080201604051806101000160405290816000820154815260200160018201805461109b906155e4565b80601f01602080910402602001604051908101604052809291908181526020018280546110c7906155e4565b80156111145780601f106110e957610100808354040283529160200191611114565b820191906000526020600020905b8154815290600101906020018083116110f757829003601f168201915b5050505050815260200160028201805461112d906155e4565b80601f0160208091040260200160405190810160405280929190818152602001828054611159906155e4565b80156111a65780601f1061117b576101008083540402835291602001916111a6565b820191906000526020600020905b81548152906001019060200180831161118957829003601f168201915b505050505081526020016003820180546111bf906155e4565b80601f01602080910402602001604051908101604052809291908181526020018280546111eb906155e4565b80156112385780601f1061120d57610100808354040283529160200191611238565b820191906000526020600020905b81548152906001019060200180831161121b57829003601f168201915b50505050508152602001600482018054611251906155e4565b80601f016020809104026020016040519081016040528092919081815260200182805461127d906155e4565b80156112ca5780601f1061129f576101008083540402835291602001916112ca565b820191906000526020600020905b8154815290600101906020018083116112ad57829003601f168201915b505050505081526020016005820180546112e3906155e4565b80601f016020809104026020016040519081016040528092919081815260200182805461130f906155e4565b801561135c5780601f106113315761010080835404028352916020019161135c565b820191906000526020600020905b81548152906001019060200180831161133f57829003601f168201915b50505050508152602001600682018054611375906155e4565b80601f01602080910402602001604051908101604052809291908181526020018280546113a1906155e4565b80156113ee5780601f106113c3576101008083540402835291602001916113ee565b820191906000526020600020905b8154815290600101906020018083116113d157829003601f168201915b505050505081526020016007820160009054906101000a900473ffffffffffffffffffffffffffffffffffffffff1673ffffffffffffffffffffffffffffffffffffffff1673ffffffffffffffffffffffffffffffffffffffff16815250508152602001906001019061105d565b50505050611e44565b815260200160008152509080600181540180825580915050600190039060005260206000209060040201600090919091909150600082015181600001556020820151816001015560408201518160020190805190602001906114c89291906140ca565b506060820151816003015550506040518060e00160405280600c548152602001600015158152602001600015158152602001600b54815260200160018152602001428152602001600081525060076000600c5481526020019081526020016000206000820151816000015560208201518160010160006101000a81548160ff02191690831515021790555060408201518160010160016101000a81548160ff021916908315150217905550606082015181600201556080820151816003015560a0820151816004015560c08201518160050155905050600d60008154809291906115b1906156d6565b9190505550600c60008154809291906115c9906156d6565b9190505550565b600060076000838152602001908152602001600020600301549050919050565b60026020528060005260406000206000915054906101000a900460ff1681565b60606007600083815260200190815260200160002060010160019054906101000a900460ff16611675576040517f08c379a000000000000000000000000000000000000000000000000000000000815260040161166c9061576a565b60405180910390fd5b6000600760008481526020019081526020016000206002015467ffffffffffffffff8111156116a7576116a6614961565b5b6040519080825280602002602001820160405280156116e057816020015b6116cd614117565b8152602001906001900390816116c55790505b50905060005b600760008581526020019081526020016000206002015481101561175f57604051806040016040528082815260200161172b86600185611726919061578a565b61279f565b81525082828151811061174157611740615586565b5b60200260200101819052508080611757906156d6565b9150506116e6565b5080915050919050565b611771613f25565b611779611c05565b73ffffffffffffffffffffffffffffffffffffffff163373ffffffffffffffffffffffffffffffffffffffff16146117e6576040517f08c379a00000000000000000000000000000000000000000000000000000000081526004016117dd90615830565b60405180910390fd5b600260008473ffffffffffffffffffffffffffffffffffffffff1673ffffffffffffffffffffffffffffffffffffffff16815260200190815260200160002060009054906101000a900460ff1615611873576040517f08c379a000000000000000000000000000000000000000000000000000000000815260040161186a906158c2565b60405180910390fd5b6001600260008573ffffffffffffffffffffffffffffffffffffffff1673ffffffffffffffffffffffffffffffffffffffff16815260200190815260200160002060006101000a81548160ff021916908315150217905550600160405180606001604052808481526020018573ffffffffffffffffffffffffffffffffffffffff168152602001838152509080600181540180825580915050600190039060005260206000209060030201600090919091909150600082015181600001908161193c9190615a8e565b5060208201518160010160006101000a81548173ffffffffffffffffffffffffffffffffffffffff021916908373ffffffffffffffffffffffffffffffffffffffff16021790555060408201518160020190816119999190615a8e565b505050505050565b6000600660016006805490506119b79190615b60565b815481106119c8576119c7615586565b5b9060005260206000200154905090565b60036020528060005260406000206000915090508060000180546119fb906155e4565b80601f0160208091040260200160405190810160405280929190818152602001828054611a27906155e4565b8015611a745780601f10611a4957610100808354040283529160200191611a74565b820191906000526020600020905b815481529060010190602001808311611a5757829003601f168201915b5050505050908060010160009054906101000a900473ffffffffffffffffffffffffffffffffffffffff1690806002018054611aaf906155e4565b80601f0160208091040260200160405190810160405280929190818152602001828054611adb906155e4565b8015611b285780601f10611afd57610100808354040283529160200191611b28565b820191906000526020600020905b815481529060010190602001808311611b0b57829003601f168201915b5050505050905083565b611b3a613f25565b611b446000613fa3565b565b611b4e614131565b600760008381526020019081526020016000206040518060e0016040529081600082015481526020016001820160009054906101000a900460ff161515151581526020016001820160019054906101000a900460ff161515151581526020016002820154815260200160038201548152602001600482015481526020016005820154815250509050919050565b60068181548110611beb57600080fd5b906000526020600020016000915090505481565b600d5481565b60008060009054906101000a900473ffffffffffffffffffffffffffffffffffffffff16905090565b60606001805480602002602001604051908101604052809291908181526020016000905b82821015611dfe5783829060005260206000209060030201604051806060016040529081600082018054611c85906155e4565b80601f0160208091040260200160405190810160405280929190818152602001828054611cb1906155e4565b8015611cfe5780601f10611cd357610100808354040283529160200191611cfe565b820191906000526020600020905b815481529060010190602001808311611ce157829003601f168201915b505050505081526020016001820160009054906101000a900473ffffffffffffffffffffffffffffffffffffffff1673ffffffffffffffffffffffffffffffffffffffff1673ffffffffffffffffffffffffffffffffffffffff168152602001600282018054611d6d906155e4565b80601f0160208091040260200160405190810160405280929190818152602001828054611d99906155e4565b8015611de65780601f10611dbb57610100808354040283529160200191611de6565b820191906000526020600020905b815481529060010190602001808311611dc957829003601f168201915b50505050508152505081526020019060010190611c52565b50505050905090565b60003373ffffffffffffffffffffffffffffffffffffffff16611e28611c05565b73ffffffffffffffffffffffffffffffffffffffff1614905090565b60606000825167ffffffffffffffff811115611e6357611e62614961565b5b604051908082528060200260200182016040528015611e915781602001602082028036833780820191505090505b50905060005b8351811015611ef157838181518110611eb357611eb2615586565b5b602002602001015160000151828281518110611ed257611ed1615586565b5b6020026020010181815250508080611ee9906156d6565b915050611e97565b5080915050919050565b6000611f078233613131565b9050919050565b600b5481565b60018181548110611f2457600080fd5b9060005260206000209060030201600091509050806000018054611f47906155e4565b80601f0160208091040260200160405190810160405280929190818152602001828054611f73906155e4565b8015611fc05780601f10611f9557610100808354040283529160200191611fc0565b820191906000526020600020905b815481529060010190602001808311611fa357829003601f168201915b5050505050908060010160009054906101000a900473ffffffffffffffffffffffffffffffffffffffff1690806002018054611ffb906155e4565b80601f0160208091040260200160405190810160405280929190818152602001828054612027906155e4565b80156120745780601f1061204957610100808354040283529160200191612074565b820191906000526020600020905b81548152906001019060200180831161205757829003601f168201915b5050505050905083565b6000600c54905090565b6007600083815260200190815260200160002060010160009054906101000a900460ff166120eb576040517f08c379a00000000000000000000000000000000000000000000000000000000081526004016120e290615be0565b60405180910390fd5b6007600083815260200190815260200160002060010160019054906101000a900460ff161561214f576040517f08c379a000000000000000000000000000000000000000000000000000000000815260040161214690615c4c565b60405180910390fd5b600061215a836115d0565b905060006008600085815260200190815260200160002060018361217e9190615b60565b8154811061218f5761218e615586565b5b906000526020600020906004020160020183815481106121b2576121b1615586565b5b9060005260206000200154036121fd576040517f08c379a00000000000000000000000000000000000000000000000000000000081526004016121f490615cde565b60405180910390fd5b61220783336132f5565b15612247576040517f08c379a000000000000000000000000000000000000000000000000000000000815260040161223e90615d70565b60405180910390fd5b600960006008600086815260200190815260200160002060018461226b9190615b60565b8154811061227c5761227b615586565b5b906000526020600020906004020160000154815260200190815260200160002060405180604001604052803373ffffffffffffffffffffffffffffffffffffffff16815260200184815250908060018154018082558091505060019003906000526020600020906002020160009091909190915060008201518160000160006101000a81548173ffffffffffffffffffffffffffffffffffffffff021916908373ffffffffffffffffffffffffffffffffffffffff160217905550602082015181600101555050505050565b612350613f25565b612358611c05565b73ffffffffffffffffffffffffffffffffffffffff163373ffffffffffffffffffffffffffffffffffffffff16146123c5576040517f08c379a00000000000000000000000000000000000000000000000000000000081526004016123bc90615e02565b60405180910390fd5b600260008273ffffffffffffffffffffffffffffffffffffffff1673ffffffffffffffffffffffffffffffffffffffff16815260200190815260200160002060009054906101000a900460ff16612451576040517f08c379a000000000000000000000000000000000000000000000000000000000815260040161244890615e94565b60405180910390fd5b6000600260008373ffffffffffffffffffffffffffffffffffffffff1673ffffffffffffffffffffffffffffffffffffffff16815260200190815260200160002060006101000a81548160ff02191690831515021790555060005b6001805490508110156125b1578173ffffffffffffffffffffffffffffffffffffffff16600182815481106124e4576124e3615586565b5b906000526020600020906003020160010160009054906101000a900473ffffffffffffffffffffffffffffffffffffffff1673ffffffffffffffffffffffffffffffffffffffff160361259e576001818154811061254557612544615586565b5b9060005260206000209060030201600080820160006125649190614172565b6001820160006101000a81549073ffffffffffffffffffffffffffffffffffffffff021916905560028201600061259b9190614172565b50505b80806125a9906156d6565b9150506124ac565b5050565b6125bd613f25565b6125c5611c05565b73ffffffffffffffffffffffffffffffffffffffff163373ffffffffffffffffffffffffffffffffffffffff1614612632576040517f08c379a000000000000000000000000000000000000000000000000000000000815260040161262990615f26565b60405180910390fd5b8060076000838152602001908152602001600020600001541461268a576040517f08c379a000000000000000000000000000000000000000000000000000000000815260040161268190615f92565b60405180910390fd5b6007600082815260200190815260200160002060010160019054906101000a900460ff16156126ee576040517f08c379a00000000000000000000000000000000000000000000000000000000081526004016126e590616024565b60405180910390fd5b6007600082815260200190815260200160002060010160009054906101000a900460ff1615612752576040517f08c379a0000000000000000000000000000000000000000000000000000000008152600401612749906160b6565b60405180910390fd5b60016007600083815260200190815260200160002060010160006101000a81548160ff02191690831515021790555042600760008381526020019081526020016000206005018190555050565b6060600060019050600760008581526020019081526020016000206002015483101561288c5760038360076000878152602001908152602001600020600201546127e99190615b60565b6127f391906160d6565b905080600860008681526020019081526020016000206001856128169190615b60565b8154811061282757612826615586565b5b906000526020600020906004020160020180549050101561288b57600860008581526020019081526020016000206001846128629190615b60565b8154811061287357612872615586565b5b90600052602060002090600402016002018054905090505b5b600060096000600860008881526020019081526020016000206001876128b29190615b60565b815481106128c3576128c2615586565b5b9060005260206000209060040201600001548152602001908152602001600020805480602002602001604051908101604052809291908181526020016000905b8282101561299557838290600052602060002090600202016040518060400160405290816000820160009054906101000a900473ffffffffffffffffffffffffffffffffffffffff1673ffffffffffffffffffffffffffffffffffffffff1673ffffffffffffffffffffffffffffffffffffffff16815260200160018201548152505081526020019060010190612903565b5050505090506000600860008781526020019081526020016000206001866129bd9190615b60565b815481106129ce576129cd615586565b5b9060005260206000209060040201600201805480602002602001604051908101604052809291908181526020018280548015612a2957602002820191906000526020600020905b815481526020019060010190808311612a15575b5050505050905060005b8151811015612a82576000600a6000848481518110612a5557612a54615586565b5b60200260200101518152602001908152602001600020819055508080612a7a906156d6565b915050612a33565b5060005b8251811015612ba25760026000848381518110612aa657612aa5615586565b5b60200260200101516000015173ffffffffffffffffffffffffffffffffffffffff1673ffffffffffffffffffffffffffffffffffffffff16815260200190815260200160002060009054906101000a900460ff1615612b4957601e600a6000848481518110612b1857612b17615586565b5b602002602001015181526020019081526020016000206000828254612b3d919061578a565b92505081905550612b8f565b6001600a6000848481518110612b6257612b61615586565b5b602002602001015181526020019081526020016000206000828254612b87919061578a565b925050819055505b8080612b9a906156d6565b915050612a86565b506000806000808667ffffffffffffffff811115612bc357612bc2614961565b5b604051908082528060200260200182016040528015612bfc57816020015b612be96141b2565b815260200190600190039081612be15790505b50905060005b8781101561311a5760005b8651811015612caf5785600a6000898481518110612c2e57612c2d615586565b5b60200260200101518152602001908152602001600020541115612c9c57600a6000888381518110612c6257612c61615586565b5b60200260200101518152602001908152602001600020549550868181518110612c8e57612c8d615586565b5b602002602001015194508093505b8080612ca7906156d6565b915050612c0d565b50604051806040016040528060058681548110612ccf57612cce615586565b5b90600052602060002090600802016040518061010001604052908160008201548152602001600182018054612d03906155e4565b80601f0160208091040260200160405190810160405280929190818152602001828054612d2f906155e4565b8015612d7c5780601f10612d5157610100808354040283529160200191612d7c565b820191906000526020600020905b815481529060010190602001808311612d5f57829003601f168201915b50505050508152602001600282018054612d95906155e4565b80601f0160208091040260200160405190810160405280929190818152602001828054612dc1906155e4565b8015612e0e5780601f10612de357610100808354040283529160200191612e0e565b820191906000526020600020905b815481529060010190602001808311612df157829003601f168201915b50505050508152602001600382018054612e27906155e4565b80601f0160208091040260200160405190810160405280929190818152602001828054612e53906155e4565b8015612ea05780601f10612e7557610100808354040283529160200191612ea0565b820191906000526020600020905b815481529060010190602001808311612e8357829003601f168201915b50505050508152602001600482018054612eb9906155e4565b80601f0160208091040260200160405190810160405280929190818152602001828054612ee5906155e4565b8015612f325780601f10612f0757610100808354040283529160200191612f32565b820191906000526020600020905b815481529060010190602001808311612f1557829003601f168201915b50505050508152602001600582018054612f4b906155e4565b80601f0160208091040260200160405190810160405280929190818152602001828054612f77906155e4565b8015612fc45780601f10612f9957610100808354040283529160200191612fc4565b820191906000526020600020905b815481529060010190602001808311612fa757829003601f168201915b50505050508152602001600682018054612fdd906155e4565b80601f0160208091040260200160405190810160405280929190818152602001828054613009906155e4565b80156130565780601f1061302b57610100808354040283529160200191613056565b820191906000526020600020905b81548152906001019060200180831161303957829003601f168201915b505050505081526020016007820160009054906101000a900473ffffffffffffffffffffffffffffffffffffffff1673ffffffffffffffffffffffffffffffffffffffff1673ffffffffffffffffffffffffffffffffffffffff16815250508152602001868152508282815181106130d1576130d0615586565b5b60200260200101819052508583815181106130ef576130ee615586565b5b6020026020010160008152506000945060009350600092508080613112906156d6565b915050612c02565b508097505050505050505092915050565b600c5481565b60008061313d846115d0565b9050600060096000600860008881526020019081526020016000206001856131659190615b60565b8154811061317657613175615586565b5b9060005260206000209060040201600001548152602001908152602001600020805480602002602001604051908101604052809291908181526020016000905b8282101561324857838290600052602060002090600202016040518060400160405290816000820160009054906101000a900473ffffffffffffffffffffffffffffffffffffffff1673ffffffffffffffffffffffffffffffffffffffff1673ffffffffffffffffffffffffffffffffffffffff168152602001600182015481525050815260200190600101906131b6565b50505050905060005b81518110156132e7578473ffffffffffffffffffffffffffffffffffffffff1682828151811061328457613283615586565b5b60200260200101516000015173ffffffffffffffffffffffffffffffffffffffff16036132d4578181815181106132be576132bd615586565b5b60200260200101516020015193505050506132ef565b80806132df906156d6565b915050613251565b506000925050505b92915050565b6000806133028484613131565b146133105760019050613315565b600090505b92915050565b60045481565b60606005805480602002602001604051908101604052809291908181526020016000905b8282101561374457838290600052602060002090600802016040518061010001604052908160008201548152602001600182018054613383906155e4565b80601f01602080910402602001604051908101604052809291908181526020018280546133af906155e4565b80156133fc5780601f106133d1576101008083540402835291602001916133fc565b820191906000526020600020905b8154815290600101906020018083116133df57829003601f168201915b50505050508152602001600282018054613415906155e4565b80601f0160208091040260200160405190810160405280929190818152602001828054613441906155e4565b801561348e5780601f106134635761010080835404028352916020019161348e565b820191906000526020600020905b81548152906001019060200180831161347157829003601f168201915b505050505081526020016003820180546134a7906155e4565b80601f01602080910402602001604051908101604052809291908181526020018280546134d3906155e4565b80156135205780601f106134f557610100808354040283529160200191613520565b820191906000526020600020905b81548152906001019060200180831161350357829003601f168201915b50505050508152602001600482018054613539906155e4565b80601f0160208091040260200160405190810160405280929190818152602001828054613565906155e4565b80156135b25780601f10613587576101008083540402835291602001916135b2565b820191906000526020600020905b81548152906001019060200180831161359557829003601f168201915b505050505081526020016005820180546135cb906155e4565b80601f01602080910402602001604051908101604052809291908181526020018280546135f7906155e4565b80156136445780601f1061361957610100808354040283529160200191613644565b820191906000526020600020905b81548152906001019060200180831161362757829003601f168201915b5050505050815260200160068201805461365d906155e4565b80601f0160208091040260200160405190810160405280929190818152602001828054613689906155e4565b80156136d65780601f106136ab576101008083540402835291602001916136d6565b820191906000526020600020905b8154815290600101906020018083116136b957829003601f168201915b505050505081526020016007820160009054906101000a900473ffffffffffffffffffffffffffffffffffffffff1673ffffffffffffffffffffffffffffffffffffffff1673ffffffffffffffffffffffffffffffffffffffff168152505081526020019060010190613345565b50505050905090565b600560405180610100016040528060045481526020018881526020018781526020018681526020018581526020018481526020018381526020013373ffffffffffffffffffffffffffffffffffffffff1681525090806001815401808255809150506001900390600052602060002090600802016000909190919091506000820151816000015560208201518160010190816137e99190615a8e565b5060408201518160020190816137ff9190615a8e565b5060608201518160030190816138159190615a8e565b50608082015181600401908161382b9190615a8e565b5060a08201518160050190816138419190615a8e565b5060c08201518160060190816138579190615a8e565b5060e08201518160070160006101000a81548173ffffffffffffffffffffffffffffffffffffffff021916908373ffffffffffffffffffffffffffffffffffffffff1602179055505050600460008154809291906138b4906156d6565b9190505550505050505050565b6138c9613f25565b6138d1611c05565b73ffffffffffffffffffffffffffffffffffffffff163373ffffffffffffffffffffffffffffffffffffffff161461393e576040517f08c379a00000000000000000000000000000000000000000000000000000000081526004016139359061618a565b60405180910390fd5b6007600082815260200190815260200160002060010160009054906101000a900460ff166139a1576040517f08c379a0000000000000000000000000000000000000000000000000000000008152600401613998906161f6565b60405180910390fd5b6007600082815260200190815260200160002060010160019054906101000a900460ff1615613a05576040517f08c379a00000000000000000000000000000000000000000000000000000000081526004016139fc90615c4c565b60405180910390fd5b6000613a10826115d0565b905060076000838152602001908152602001600020600201548103613aaa5760016007600084815260200190815260200160002060010160016101000a81548160ff0219169083151502179055504260086000848152602001908152602001600020600183613a7f9190615b60565b81548110613a9057613a8f615586565b5b906000526020600020906004020160030181905550613ca1565b6000613ab6838361279f565b90506000815167ffffffffffffffff811115613ad557613ad4614961565b5b604051908082528060200260200182016040528015613b0e57816020015b613afb61406f565b815260200190600190039081613af35790505b50905060005b8251811015613b6d57828181518110613b3057613b2f615586565b5b602002602001015160000151828281518110613b4f57613b4e615586565b5b60200260200101819052508080613b65906156d6565b915050613b14565b504260086000868152602001908152602001600020600185613b8f9190615b60565b81548110613ba057613b9f615586565b5b906000526020600020906004020160030181905550600760008581526020019081526020016000206003016000815480929190613bdc906156d6565b9190505550600860008581526020019081526020016000206040518060800160405280600d548152602001858152602001613c1684611e44565b81526020016000815250908060018154018082558091505060019003906000526020600020906004020160009091909190915060008201518160000155602082015181600101556040820151816002019080519060200190613c799291906140ca565b50606082015181600301555050600d6000815480929190613c99906156d6565b919050555050505b5050565b613cad613f25565b600073ffffffffffffffffffffffffffffffffffffffff168173ffffffffffffffffffffffffffffffffffffffff1603613d1c576040517f08c379a0000000000000000000000000000000000000000000000000000000008152600401613d1390616288565b60405180910390fd5b613d2581613fa3565b50565b613d3061406f565b6007600083815260200190815260200160002060010160019054906101000a900460ff16613d93576040517f08c379a0000000000000000000000000000000000000000000000000000000008152600401613d8a9061576a565b60405180910390fd5b613db382600760008581526020019081526020016000206002015461279f565b600081518110613dc657613dc5615586565b5b6020026020010151600001519050919050565b6060600060068054905067ffffffffffffffff811115613dfc57613dfb614961565b5b604051908082528060200260200182016040528015613e3557816020015b613e22614131565b815260200190600190039081613e1a5790505b50905060005b600680549050811015613f1d576007600060068381548110613e6057613e5f615586565b5b906000526020600020015481526020019081526020016000206040518060e0016040529081600082015481526020016001820160009054906101000a900460ff161515151581526020016001820160019054906101000a900460ff16151515158152602001600282015481526020016003820154815260200160048201548152602001600582015481525050828281518110613eff57613efe615586565b5b60200260200101819052508080613f15906156d6565b915050613e3b565b508091505090565b613f2d614067565b73ffffffffffffffffffffffffffffffffffffffff16613f4b611c05565b73ffffffffffffffffffffffffffffffffffffffff1614613fa1576040517f08c379a0000000000000000000000000000000000000000000000000000000008152600401613f98906162f4565b60405180910390fd5b565b60008060009054906101000a900473ffffffffffffffffffffffffffffffffffffffff169050816000806101000a81548173ffffffffffffffffffffffffffffffffffffffff021916908373ffffffffffffffffffffffffffffffffffffffff1602179055508173ffffffffffffffffffffffffffffffffffffffff168173ffffffffffffffffffffffffffffffffffffffff167f8be0079c531659141344cd1fd0a4f28419497f9722a3daafe3b4186f6b6457e060405160405180910390a35050565b600033905090565b60405180610100016040528060008152602001606081526020016060815260200160608152602001606081526020016060815260200160608152602001600073ffffffffffffffffffffffffffffffffffffffff1681525090565b828054828255906000526020600020908101928215614106579160200282015b828111156141055782518255916020019190600101906140ea565b5b50905061411391906141d2565b5090565b604051806040016040528060008152602001606081525090565b6040518060e0016040528060008152602001600015158152602001600015158152602001600081526020016000815260200160008152602001600081525090565b50805461417e906155e4565b6000825580601f1061419057506141af565b601f0160209004906000526020600020908101906141ae91906141d2565b5b50565b60405180604001604052806141c561406f565b8152602001600081525090565b5b808211156141eb5760008160009055506001016141d3565b5090565b6000604051905090565b600080fd5b600080fd5b6000819050919050565b61421681614203565b811461422157600080fd5b50565b6000813590506142338161420d565b92915050565b60006020828403121561424f5761424e6141f9565b5b600061425d84828501614224565b91505092915050565b61426f81614203565b82525050565b60008115159050919050565b61428a81614275565b82525050565b600060e0820190506142a5600083018a614266565b6142b26020830189614281565b6142bf6040830188614281565b6142cc6060830187614266565b6142d96080830186614266565b6142e660a0830185614266565b6142f360c0830184614266565b98975050505050505050565b61430881614203565b82525050565b600081519050919050565b600082825260208201905092915050565b60005b8381101561434857808201518184015260208101905061432d565b60008484015250505050565b6000601f19601f8301169050919050565b60006143708261430e565b61437a8185614319565b935061438a81856020860161432a565b61439381614354565b840191505092915050565b600073ffffffffffffffffffffffffffffffffffffffff82169050919050565b60006143c98261439e565b9050919050565b6143d9816143be565b82525050565b6000610100830160008301516143f860008601826142ff565b50602083015184820360208601526144108282614365565b9150506040830151848203604086015261442a8282614365565b915050606083015184820360608601526144448282614365565b9150506080830151848203608086015261445e8282614365565b91505060a083015184820360a08601526144788282614365565b91505060c083015184820360c08601526144928282614365565b91505060e08301516144a760e08601826143d0565b508091505092915050565b600060208201905081810360008301526144cc81846143df565b905092915050565b600082825260208201905092915050565b60006144f08261430e565b6144fa81856144d4565b935061450a81856020860161432a565b61451381614354565b840191505092915050565b614527816143be565b82525050565b600061010082019050614543600083018b614266565b8181036020830152614555818a6144e5565b9050818103604083015261456981896144e5565b9050818103606083015261457d81886144e5565b9050818103608083015261459181876144e5565b905081810360a08301526145a581866144e5565b905081810360c08301526145b981856144e5565b90506145c860e083018461451e565b9998505050505050505050565b60006020820190506145ea6000830184614266565b92915050565b6145f9816143be565b811461460457600080fd5b50565b600081359050614616816145f0565b92915050565b600060208284031215614632576146316141f9565b5b600061464084828501614607565b91505092915050565b600060208201905061465e6000830184614281565b92915050565b600081519050919050565b600082825260208201905092915050565b6000819050602082019050919050565b600081519050919050565b600082825260208201905092915050565b6000819050602082019050919050565b6000610100830160008301516146d560008601826142ff565b50602083015184820360208601526146ed8282614365565b915050604083015184820360408601526147078282614365565b915050606083015184820360608601526147218282614365565b9150506080830151848203608086015261473b8282614365565b91505060a083015184820360a08601526147558282614365565b91505060c083015184820360c086015261476f8282614365565b91505060e083015161478460e08601826143d0565b508091505092915050565b600060408301600083015184820360008601526147ac82826146bc565b91505060208301516147c160208601826142ff565b508091505092915050565b60006147d8838361478f565b905092915050565b6000602082019050919050565b60006147f882614690565b614802818561469b565b935083602082028501614814856146ac565b8060005b85811015614850578484038952815161483185826147cc565b945061483c836147e0565b925060208a01995050600181019050614818565b50829750879550505050505092915050565b600060408301600083015161487a60008601826142ff565b506020830151848203602086015261489282826147ed565b9150508091505092915050565b60006148ab8383614862565b905092915050565b6000602082019050919050565b60006148cb82614664565b6148d5818561466f565b9350836020820285016148e785614680565b8060005b858110156149235784840389528151614904858261489f565b945061490f836148b3565b925060208a019950506001810190506148eb565b50829750879550505050505092915050565b6000602082019050818103600083015261494f81846148c0565b905092915050565b600080fd5b600080fd5b7f4e487b7100000000000000000000000000000000000000000000000000000000600052604160045260246000fd5b61499982614354565b810181811067ffffffffffffffff821117156149b8576149b7614961565b5b80604052505050565b60006149cb6141ef565b90506149d78282614990565b919050565b600067ffffffffffffffff8211156149f7576149f6614961565b5b614a0082614354565b9050602081019050919050565b82818337600083830152505050565b6000614a2f614a2a846149dc565b6149c1565b905082815260208101848484011115614a4b57614a4a61495c565b5b614a56848285614a0d565b509392505050565b600082601f830112614a7357614a72614957565b5b8135614a83848260208601614a1c565b91505092915050565b600080600060608486031215614aa557614aa46141f9565b5b6000614ab386828701614607565b935050602084013567ffffffffffffffff811115614ad457614ad36141fe565b5b614ae086828701614a5e565b925050604084013567ffffffffffffffff811115614b0157614b006141fe565b5b614b0d86828701614a5e565b9150509250925092565b60006060820190508181036000830152614b3181866144e5565b9050614b40602083018561451e565b8181036040830152614b5281846144e5565b9050949350505050565b614b6581614275565b82525050565b60e082016000820151614b8160008501826142ff565b506020820151614b946020850182614b5c565b506040820151614ba76040850182614b5c565b506060820151614bba60608501826142ff565b506080820151614bcd60808501826142ff565b5060a0820151614be060a08501826142ff565b5060c0820151614bf360c08501826142ff565b50505050565b600060e082019050614c0e6000830184614b6b565b92915050565b6000602082019050614c29600083018461451e565b92915050565b600081519050919050565b600082825260208201905092915050565b6000819050602082019050919050565b60006060830160008301518482036000860152614c788282614365565b9150506020830151614c8d60208601826143d0565b5060408301518482036040860152614ca58282614365565b9150508091505092915050565b6000614cbe8383614c5b565b905092915050565b6000602082019050919050565b6000614cde82614c2f565b614ce88185614c3a565b935083602082028501614cfa85614c4b565b8060005b85811015614d365784840389528151614d178582614cb2565b9450614d2283614cc6565b925060208a01995050600181019050614cfe565b50829750879550505050505092915050565b60006020820190508181036000830152614d628184614cd3565b905092915050565b600067ffffffffffffffff821115614d8557614d84614961565b5b602082029050602081019050919050565b600080fd5b600080fd5b600080fd5b60006101008284031215614dbc57614dbb614d9b565b5b614dc76101006149c1565b90506000614dd784828501614224565b600083015250602082013567ffffffffffffffff811115614dfb57614dfa614da0565b5b614e0784828501614a5e565b602083015250604082013567ffffffffffffffff811115614e2b57614e2a614da0565b5b614e3784828501614a5e565b604083015250606082013567ffffffffffffffff811115614e5b57614e5a614da0565b5b614e6784828501614a5e565b606083015250608082013567ffffffffffffffff811115614e8b57614e8a614da0565b5b614e9784828501614a5e565b60808301525060a082013567ffffffffffffffff811115614ebb57614eba614da0565b5b614ec784828501614a5e565b60a08301525060c082013567ffffffffffffffff811115614eeb57614eea614da0565b5b614ef784828501614a5e565b60c08301525060e0614f0b84828501614607565b60e08301525092915050565b6000614f2a614f2584614d6a565b6149c1565b90508083825260208201905060208402830185811115614f4d57614f4c614d96565b5b835b81811015614f9457803567ffffffffffffffff811115614f7257614f71614957565b5b808601614f7f8982614da5565b85526020850194505050602081019050614f4f565b5050509392505050565b600082601f830112614fb357614fb2614957565b5b8135614fc3848260208601614f17565b91505092915050565b600060208284031215614fe257614fe16141f9565b5b600082013567ffffffffffffffff81111561500057614fff6141fe565b5b61500c84828501614f9e565b91505092915050565b600081519050919050565b600082825260208201905092915050565b6000819050602082019050919050565b600061504d83836142ff565b60208301905092915050565b6000602082019050919050565b600061507182615015565b61507b8185615020565b935061508683615031565b8060005b838110156150b757815161509e8882615041565b97506150a983615059565b92505060018101905061508a565b5085935050505092915050565b600060208201905081810360008301526150de8184615066565b905092915050565b600080604083850312156150fd576150fc6141f9565b5b600061510b85828601614224565b925050602061511c85828601614224565b9150509250929050565b600082825260208201905092915050565b600061514282614690565b61514c8185615126565b93508360208202850161515e856146ac565b8060005b8581101561519a578484038952815161517b85826147cc565b9450615186836147e0565b925060208a01995050600181019050615162565b50829750879550505050505092915050565b600060208201905081810360008301526151c68184615137565b905092915050565b600080604083850312156151e5576151e46141f9565b5b60006151f385828601614224565b925050602061520485828601614607565b9150509250929050565b600081519050919050565b600082825260208201905092915050565b6000819050602082019050919050565b600061524683836146bc565b905092915050565b6000602082019050919050565b60006152668261520e565b6152708185615219565b9350836020820285016152828561522a565b8060005b858110156152be578484038952815161529f858261523a565b94506152aa8361524e565b925060208a01995050600181019050615286565b50829750879550505050505092915050565b600060208201905081810360008301526152ea818461525b565b905092915050565b60008060008060008060c0878903121561530f5761530e6141f9565b5b600087013567ffffffffffffffff81111561532d5761532c6141fe565b5b61533989828a01614a5e565b965050602087013567ffffffffffffffff81111561535a576153596141fe565b5b61536689828a01614a5e565b955050604087013567ffffffffffffffff811115615387576153866141fe565b5b61539389828a01614a5e565b945050606087013567ffffffffffffffff8111156153b4576153b36141fe565b5b6153c089828a01614a5e565b935050608087013567ffffffffffffffff8111156153e1576153e06141fe565b5b6153ed89828a01614a5e565b92505060a087013567ffffffffffffffff81111561540e5761540d6141fe565b5b61541a89828a01614a5e565b9150509295509295509295565b600081519050919050565b600082825260208201905092915050565b6000819050602082019050919050565b60e08201600082015161546960008501826142ff565b50602082015161547c6020850182614b5c565b50604082015161548f6040850182614b5c565b5060608201516154a260608501826142ff565b5060808201516154b560808501826142ff565b5060a08201516154c860a08501826142ff565b5060c08201516154db60c08501826142ff565b50505050565b60006154ed8383615453565b60e08301905092915050565b6000602082019050919050565b600061551182615427565b61551b8185615432565b935061552683615443565b8060005b8381101561555757815161553e88826154e1565b9750615549836154f9565b92505060018101905061552a565b5085935050505092915050565b6000602082019050818103600083015261557e8184615506565b905092915050565b7f4e487b7100000000000000000000000000000000000000000000000000000000600052603260045260246000fd5b7f4e487b7100000000000000000000000000000000000000000000000000000000600052602260045260246000fd5b600060028204905060018216806155fc57607f821691505b60208210810361560f5761560e6155b5565b5b50919050565b7f4f6e6c792074686520636f6e7472616374206f776e65722063616e206372656160008201527f746520766f74652073657373696f6e732e000000000000000000000000000000602082015250565b60006156716031836144d4565b915061567c82615615565b604082019050919050565b600060208201905081810360008301526156a081615664565b9050919050565b7f4e487b7100000000000000000000000000000000000000000000000000000000600052601160045260246000fd5b60006156e182614203565b91507fffffffffffffffffffffffffffffffffffffffffffffffffffffffffffffffff8203615713576157126156a7565b5b600182019050919050565b7f54686520766f74652073657373696f6e206973206e6f7420656e6465642e0000600082015250565b6000615754601e836144d4565b915061575f8261571e565b602082019050919050565b6000602082019050818103600083015261578381615747565b9050919050565b600061579582614203565b91506157a083614203565b92508282019050808211156157b8576157b76156a7565b5b92915050565b7f4f6e6c792074686520636f6e7472616374206f776e65722063616e206164642060008201527f6a757279206d656d626572732e00000000000000000000000000000000000000602082015250565b600061581a602d836144d4565b9150615825826157be565b604082019050919050565b600060208201905081810360008301526158498161580d565b9050919050565b7f546865206164647265737320697320616c72656164792061206a757279206d6560008201527f6d6265722e000000000000000000000000000000000000000000000000000000602082015250565b60006158ac6025836144d4565b91506158b782615850565b604082019050919050565b600060208201905081810360008301526158db8161589f565b9050919050565b60008190508160005260206000209050919050565b60006020601f8301049050919050565b600082821b905092915050565b6000600883026159447fffffffffffffffffffffffffffffffffffffffffffffffffffffffffffffffff82615907565b61594e8683615907565b95508019841693508086168417925050509392505050565b6000819050919050565b600061598b61598661598184614203565b615966565b614203565b9050919050565b6000819050919050565b6159a583615970565b6159b96159b182615992565b848454615914565b825550505050565b600090565b6159ce6159c1565b6159d981848461599c565b505050565b5b818110156159fd576159f26000826159c6565b6001810190506159df565b5050565b601f821115615a4257615a13816158e2565b615a1c846158f7565b81016020851015615a2b578190505b615a3f615a37856158f7565b8301826159de565b50505b505050565b600082821c905092915050565b6000615a6560001984600802615a47565b1980831691505092915050565b6000615a7e8383615a54565b9150826002028217905092915050565b615a978261430e565b67ffffffffffffffff811115615ab057615aaf614961565b5b615aba82546155e4565b615ac5828285615a01565b600060209050601f831160018114615af85760008415615ae6578287015190505b615af08582615a72565b865550615b58565b601f198416615b06866158e2565b60005b82811015615b2e57848901518255600182019150602085019450602081019050615b09565b86831015615b4b5784890151615b47601f891682615a54565b8355505b6001600288020188555050505b505050505050565b6000615b6b82614203565b9150615b7683614203565b9250828203905081811115615b8e57615b8d6156a7565b5b92915050565b7f54686520766f74652073657373696f6e206973206e6f7420737461727465642e600082015250565b6000615bca6020836144d4565b9150615bd582615b94565b602082019050919050565b60006020820190508181036000830152615bf981615bbd565b9050919050565b7f54686520766f74652073657373696f6e20697320656e6465642e000000000000600082015250565b6000615c36601a836144d4565b9150615c4182615c00565b602082019050919050565b60006020820190508181036000830152615c6581615c29565b9050919050565b7f5468652067616d65206973206e6f7420617661696c61626c6520666f7220746860008201527f697320726f756e642e0000000000000000000000000000000000000000000000602082015250565b6000615cc86029836144d4565b9150615cd382615c6c565b604082019050919050565b60006020820190508181036000830152615cf781615cbb565b9050919050565b7f596f75206861766520616c726561647920766f7465642074686973207475726e60008201527f2e00000000000000000000000000000000000000000000000000000000000000602082015250565b6000615d5a6021836144d4565b9150615d6582615cfe565b604082019050919050565b60006020820190508181036000830152615d8981615d4d565b9050919050565b7f4f6e6c792074686520636f6e7472616374206f776e65722063616e2072656d6f60008201527f7665206a757279206d656d626572732e00000000000000000000000000000000602082015250565b6000615dec6030836144d4565b9150615df782615d90565b604082019050919050565b60006020820190508181036000830152615e1b81615ddf565b9050919050565b7f5468652061646472657373206973206e6f742061206a757279206d656d62657260008201527f2e00000000000000000000000000000000000000000000000000000000000000602082015250565b6000615e7e6021836144d4565b9150615e8982615e22565b604082019050919050565b60006020820190508181036000830152615ead81615e71565b9050919050565b7f4f6e6c792074686520636f6e7472616374206f776e65722063616e207374617260008201527f7420766f74652073657373696f6e732e00000000000000000000000000000000602082015250565b6000615f106030836144d4565b9150615f1b82615eb4565b604082019050919050565b60006020820190508181036000830152615f3f81615f03565b9050919050565b7f54686520766f74652073657373696f6e20646f6573206e6f742065786973742e600082015250565b6000615f7c6020836144d4565b9150615f8782615f46565b602082019050919050565b60006020820190508181036000830152615fab81615f6f565b9050919050565b7f54686520766f74652073657373696f6e20697320616c726561647920656e646560008201527f642e000000000000000000000000000000000000000000000000000000000000602082015250565b600061600e6022836144d4565b915061601982615fb2565b604082019050919050565b6000602082019050818103600083015261603d81616001565b9050919050565b7f54686520766f74652073657373696f6e2068617320616c72656164792073746160008201527f727465642e000000000000000000000000000000000000000000000000000000602082015250565b60006160a06025836144d4565b91506160ab82616044565b604082019050919050565b600060208201905081810360008301526160cf81616093565b9050919050565b60006160e182614203565b91506160ec83614203565b92508282026160fa81614203565b91508282048414831517616111576161106156a7565b5b5092915050565b7f4f6e6c792074686520636f6e7472616374206f776e65722063616e207061737360008201527f20746f20746865206e65787420726f756e642e00000000000000000000000000602082015250565b60006161746033836144d4565b915061617f82616118565b604082019050919050565b600060208201905081810360008301526161a381616167565b9050919050565b7f54686520766f7465206973206e6f7420737461727465642e0000000000000000600082015250565b60006161e06018836144d4565b91506161eb826161aa565b602082019050919050565b6000602082019050818103600083015261620f816161d3565b9050919050565b7f4f776e61626c653a206e6577206f776e657220697320746865207a65726f206160008201527f6464726573730000000000000000000000000000000000000000000000000000602082015250565b60006162726026836144d4565b915061627d82616216565b604082019050919050565b600060208201905081810360008301526162a181616265565b9050919050565b7f4f776e61626c653a2063616c6c6572206973206e6f7420746865206f776e6572600082015250565b60006162de6020836144d4565b91506162e9826162a8565b602082019050919050565b6000602082019050818103600083015261630d816162d1565b905091905056fea2646970667358221220f565ab7ad9be730b9e6662ea6a17fa60486e28958f5de8953fddec2058f2e7e164736f6c63430008110033",
  "linkReferences": {},
  "deployedLinkReferences": {}
}