{
  "_format": "hh-sol-artifact-1",
  "contractName": "GameAward",
  "sourceName": "contracts/GameAward.sol",
  "abi": [
    {
      "inputs": [
        {
          "internalType": "uint256",
          "name": "_roundSessionNumber",
          "type": "uint256"
        }
      ],
      "stateMutability": "nonpayable",
      "type": "constructor"
    },
    {
      "anonymous": false,
      "inputs": [
        {
          "indexed": true,
          "internalType": "address",
          "name": "previousOwner",
          "type": "address"
        },
        {
          "indexed": true,
          "internalType": "address",
          "name": "newOwner",
          "type": "address"
        }
      ],
      "name": "OwnershipTransferred",
      "type": "event"
    },
    {
      "inputs": [
        {
          "internalType": "string",
          "name": "_name",
          "type": "string"
        },
        {
          "internalType": "string",
          "name": "_platform",
          "type": "string"
        },
        {
          "internalType": "string",
          "name": "_price",
          "type": "string"
        },
        {
          "internalType": "string",
          "name": "_description",
          "type": "string"
        },
        {
          "internalType": "string",
          "name": "_release",
          "type": "string"
        },
        {
          "internalType": "string",
          "name": "_url",
          "type": "string"
        }
      ],
      "name": "addGame",
      "outputs": [],
      "stateMutability": "nonpayable",
      "type": "function"
    },
    {
      "inputs": [
        {
          "internalType": "address",
          "name": "addr",
          "type": "address"
        },
        {
          "internalType": "string",
          "name": "_name",
          "type": "string"
        },
        {
          "internalType": "string",
          "name": "_pictureUr",
          "type": "string"
        }
      ],
      "name": "addJuryMember",
      "outputs": [],
      "stateMutability": "nonpayable",
      "type": "function"
    },
    {
      "inputs": [],
      "name": "createVoteSession",
      "outputs": [],
      "stateMutability": "nonpayable",
      "type": "function"
    },
    {
      "inputs": [],
      "name": "gameId",
      "outputs": [
        {
          "internalType": "uint256",
          "name": "",
          "type": "uint256"
        }
      ],
      "stateMutability": "view",
      "type": "function"
    },
    {
      "inputs": [
        {
          "internalType": "uint256",
          "name": "",
          "type": "uint256"
        }
      ],
      "name": "games",
      "outputs": [
        {
          "internalType": "uint256",
          "name": "id",
          "type": "uint256"
        },
        {
          "internalType": "string",
          "name": "name",
          "type": "string"
        },
        {
          "internalType": "string",
          "name": "platform",
          "type": "string"
        },
        {
          "internalType": "string",
          "name": "price",
          "type": "string"
        },
        {
          "internalType": "string",
          "name": "description",
          "type": "string"
        },
        {
          "internalType": "string",
          "name": "release",
          "type": "string"
        },
        {
          "internalType": "string",
          "name": "url",
          "type": "string"
        },
        {
          "internalType": "address",
          "name": "originUserAddress",
          "type": "address"
        }
      ],
      "stateMutability": "view",
      "type": "function"
    },
    {
      "inputs": [],
      "name": "getAllGames",
      "outputs": [
        {
          "components": [
            {
              "internalType": "uint256",
              "name": "id",
              "type": "uint256"
            },
            {
              "internalType": "string",
              "name": "name",
              "type": "string"
            },
            {
              "internalType": "string",
              "name": "platform",
              "type": "string"
            },
            {
              "internalType": "string",
              "name": "price",
              "type": "string"
            },
            {
              "internalType": "string",
              "name": "description",
              "type": "string"
            },
            {
              "internalType": "string",
              "name": "release",
              "type": "string"
            },
            {
              "internalType": "string",
              "name": "url",
              "type": "string"
            },
            {
              "internalType": "address",
              "name": "originUserAddress",
              "type": "address"
            }
          ],
          "internalType": "struct GameAward.Game[]",
          "name": "",
          "type": "tuple[]"
        }
      ],
      "stateMutability": "view",
      "type": "function"
    },
    {
      "inputs": [
        {
          "internalType": "uint256",
          "name": "_voteSessionId",
          "type": "uint256"
        }
      ],
      "name": "getCurrentRound",
      "outputs": [
        {
          "internalType": "uint256",
          "name": "",
          "type": "uint256"
        }
      ],
      "stateMutability": "view",
      "type": "function"
    },
    {
      "inputs": [
        {
          "internalType": "uint256",
          "name": "_voteSessionId",
          "type": "uint256"
        },
        {
          "internalType": "uint256",
          "name": "round",
          "type": "uint256"
        }
      ],
      "name": "getCurrentRoundLeadingGames",
      "outputs": [
        {
          "components": [
            {
              "components": [
                {
                  "internalType": "uint256",
                  "name": "id",
                  "type": "uint256"
                },
                {
                  "internalType": "string",
                  "name": "name",
                  "type": "string"
                },
                {
                  "internalType": "string",
                  "name": "platform",
                  "type": "string"
                },
                {
                  "internalType": "string",
                  "name": "price",
                  "type": "string"
                },
                {
                  "internalType": "string",
                  "name": "description",
                  "type": "string"
                },
                {
                  "internalType": "string",
                  "name": "release",
                  "type": "string"
                },
                {
                  "internalType": "string",
                  "name": "url",
                  "type": "string"
                },
                {
                  "internalType": "address",
                  "name": "originUserAddress",
                  "type": "address"
                }
              ],
              "internalType": "struct GameAward.Game",
              "name": "game",
              "type": "tuple"
            },
            {
              "internalType": "uint256",
              "name": "score",
              "type": "uint256"
            }
          ],
          "internalType": "struct GameAward.GameScore[]",
          "name": "",
          "type": "tuple[]"
        }
      ],
      "stateMutability": "view",
      "type": "function"
    },
    {
      "inputs": [
        {
          "internalType": "uint256",
          "name": "_voteSessionId",
          "type": "uint256"
        },
        {
          "internalType": "address",
          "name": "_userAddress",
          "type": "address"
        }
      ],
      "name": "getCurrentRoundVoteGameId",
      "outputs": [
        {
          "internalType": "uint256",
          "name": "",
          "type": "uint256"
        }
      ],
      "stateMutability": "view",
      "type": "function"
    },
    {
      "inputs": [],
      "name": "getCurrentVoteSessionId",
      "outputs": [
        {
          "internalType": "uint256",
          "name": "",
          "type": "uint256"
        }
      ],
      "stateMutability": "view",
      "type": "function"
    },
    {
      "inputs": [
        {
          "internalType": "uint256",
          "name": "_gameId",
          "type": "uint256"
        }
      ],
      "name": "getGameById",
      "outputs": [
        {
          "components": [
            {
              "internalType": "uint256",
              "name": "id",
              "type": "uint256"
            },
            {
              "internalType": "string",
              "name": "name",
              "type": "string"
            },
            {
              "internalType": "string",
              "name": "platform",
              "type": "string"
            },
            {
              "internalType": "string",
              "name": "price",
              "type": "string"
            },
            {
              "internalType": "string",
              "name": "description",
              "type": "string"
            },
            {
              "internalType": "string",
              "name": "release",
              "type": "string"
            },
            {
              "internalType": "string",
              "name": "url",
              "type": "string"
            },
            {
              "internalType": "address",
              "name": "originUserAddress",
              "type": "address"
            }
          ],
          "internalType": "struct GameAward.Game",
          "name": "",
          "type": "tuple"
        }
      ],
      "stateMutability": "view",
      "type": "function"
    },
    {
      "inputs": [
        {
          "components": [
            {
              "internalType": "uint256",
              "name": "id",
              "type": "uint256"
            },
            {
              "internalType": "string",
              "name": "name",
              "type": "string"
            },
            {
              "internalType": "string",
              "name": "platform",
              "type": "string"
            },
            {
              "internalType": "string",
              "name": "price",
              "type": "string"
            },
            {
              "internalType": "string",
              "name": "description",
              "type": "string"
            },
            {
              "internalType": "string",
              "name": "release",
              "type": "string"
            },
            {
              "internalType": "string",
              "name": "url",
              "type": "string"
            },
            {
              "internalType": "address",
              "name": "originUserAddress",
              "type": "address"
            }
          ],
          "internalType": "struct GameAward.Game[]",
          "name": "gameList",
          "type": "tuple[]"
        }
      ],
      "name": "getGameIds",
      "outputs": [
        {
          "internalType": "uint256[]",
          "name": "",
          "type": "uint256[]"
        }
      ],
      "stateMutability": "view",
      "type": "function"
    },
    {
      "inputs": [
        {
          "internalType": "uint256",
          "name": "_voteSessionId",
          "type": "uint256"
        }
      ],
      "name": "getGameWinner",
      "outputs": [
        {
          "components": [
            {
              "internalType": "uint256",
              "name": "id",
              "type": "uint256"
            },
            {
              "internalType": "string",
              "name": "name",
              "type": "string"
            },
            {
              "internalType": "string",
              "name": "platform",
              "type": "string"
            },
            {
              "internalType": "string",
              "name": "price",
              "type": "string"
            },
            {
              "internalType": "string",
              "name": "description",
              "type": "string"
            },
            {
              "internalType": "string",
              "name": "release",
              "type": "string"
            },
            {
              "internalType": "string",
              "name": "url",
              "type": "string"
            },
            {
              "internalType": "address",
              "name": "originUserAddress",
              "type": "address"
            }
          ],
          "internalType": "struct GameAward.Game",
          "name": "",
          "type": "tuple"
        }
      ],
      "stateMutability": "nonpayable",
      "type": "function"
    },
    {
      "inputs": [],
      "name": "getJuries",
      "outputs": [
        {
          "components": [
            {
              "internalType": "string",
              "name": "username",
              "type": "string"
            },
            {
              "internalType": "address",
              "name": "walletAddress",
              "type": "address"
            },
            {
              "internalType": "string",
              "name": "pictureUrl",
              "type": "string"
            }
          ],
          "internalType": "struct GameAward.Jury[]",
          "name": "",
          "type": "tuple[]"
        }
      ],
      "stateMutability": "view",
      "type": "function"
    },
    {
      "inputs": [],
      "name": "getLastVoteSessionId",
      "outputs": [
        {
          "internalType": "uint256",
          "name": "",
          "type": "uint256"
        }
      ],
      "stateMutability": "view",
      "type": "function"
    },
    {
      "inputs": [
        {
          "internalType": "uint256",
          "name": "_voteSessionId",
          "type": "uint256"
        }
      ],
      "name": "getRoundsResults",
      "outputs": [
        {
          "components": [
            {
              "internalType": "uint256",
              "name": "roundNumber",
              "type": "uint256"
            },
            {
              "components": [
                {
                  "components": [
                    {
                      "internalType": "uint256",
                      "name": "id",
                      "type": "uint256"
                    },
                    {
                      "internalType": "string",
                      "name": "name",
                      "type": "string"
                    },
                    {
                      "internalType": "string",
                      "name": "platform",
                      "type": "string"
                    },
                    {
                      "internalType": "string",
                      "name": "price",
                      "type": "string"
                    },
                    {
                      "internalType": "string",
                      "name": "description",
                      "type": "string"
                    },
                    {
                      "internalType": "string",
                      "name": "release",
                      "type": "string"
                    },
                    {
                      "internalType": "string",
                      "name": "url",
                      "type": "string"
                    },
                    {
                      "internalType": "address",
                      "name": "originUserAddress",
                      "type": "address"
                    }
                  ],
                  "internalType": "struct GameAward.Game",
                  "name": "game",
                  "type": "tuple"
                },
                {
                  "internalType": "uint256",
                  "name": "score",
                  "type": "uint256"
                }
              ],
              "internalType": "struct GameAward.GameScore[]",
              "name": "games",
              "type": "tuple[]"
            }
          ],
          "internalType": "struct GameAward.GameScoreRound[]",
          "name": "",
          "type": "tuple[]"
        }
      ],
      "stateMutability": "nonpayable",
      "type": "function"
    },
    {
      "inputs": [
        {
          "internalType": "uint256",
          "name": "_voteSessionId",
          "type": "uint256"
        }
      ],
      "name": "getVoteRoundGameIds",
      "outputs": [
        {
          "internalType": "uint256",
          "name": "",
          "type": "uint256"
        }
      ],
      "stateMutability": "view",
      "type": "function"
    },
    {
      "inputs": [
        {
          "internalType": "uint256",
          "name": "_voteSessionId",
          "type": "uint256"
        }
      ],
      "name": "getVoteSession",
      "outputs": [
        {
          "components": [
            {
              "internalType": "uint256",
              "name": "id",
              "type": "uint256"
            },
            {
              "internalType": "bool",
              "name": "started",
              "type": "bool"
            },
            {
              "internalType": "bool",
              "name": "ended",
              "type": "bool"
            },
            {
              "internalType": "uint256",
              "name": "rounds",
              "type": "uint256"
            },
            {
              "internalType": "uint256",
              "name": "currentRound",
              "type": "uint256"
            },
            {
              "internalType": "uint256",
              "name": "creationDate",
              "type": "uint256"
            },
            {
              "internalType": "uint256",
              "name": "startAt",
              "type": "uint256"
            }
          ],
          "internalType": "struct GameAward.VoteSession",
          "name": "",
          "type": "tuple"
        }
      ],
      "stateMutability": "view",
      "type": "function"
    },
    {
      "inputs": [],
      "name": "getVoteSessions",
      "outputs": [
        {
          "components": [
            {
              "internalType": "uint256",
              "name": "id",
              "type": "uint256"
            },
            {
              "internalType": "bool",
              "name": "started",
              "type": "bool"
            },
            {
              "internalType": "bool",
              "name": "ended",
              "type": "bool"
            },
            {
              "internalType": "uint256",
              "name": "rounds",
              "type": "uint256"
            },
            {
              "internalType": "uint256",
              "name": "currentRound",
              "type": "uint256"
            },
            {
              "internalType": "uint256",
              "name": "creationDate",
              "type": "uint256"
            },
            {
              "internalType": "uint256",
              "name": "startAt",
              "type": "uint256"
            }
          ],
          "internalType": "struct GameAward.VoteSession[]",
          "name": "",
          "type": "tuple[]"
        }
      ],
      "stateMutability": "view",
      "type": "function"
    },
    {
      "inputs": [
        {
          "internalType": "uint256",
          "name": "_voteSessionId",
          "type": "uint256"
        },
        {
          "internalType": "address",
          "name": "_userAddress",
          "type": "address"
        }
      ],
      "name": "hasVotedThisTurn",
      "outputs": [
        {
          "internalType": "bool",
          "name": "",
          "type": "bool"
        }
      ],
      "stateMutability": "view",
      "type": "function"
    },
    {
      "inputs": [],
      "name": "isOwner",
      "outputs": [
        {
          "internalType": "bool",
          "name": "",
          "type": "bool"
        }
      ],
      "stateMutability": "view",
      "type": "function"
    },
    {
      "inputs": [
        {
          "internalType": "uint256",
          "name": "",
          "type": "uint256"
        }
      ],
      "name": "juries",
      "outputs": [
        {
          "internalType": "string",
          "name": "username",
          "type": "string"
        },
        {
          "internalType": "address",
          "name": "walletAddress",
          "type": "address"
        },
        {
          "internalType": "string",
          "name": "pictureUrl",
          "type": "string"
        }
      ],
      "stateMutability": "view",
      "type": "function"
    },
    {
      "inputs": [
        {
          "internalType": "address",
          "name": "",
          "type": "address"
        }
      ],
      "name": "juryMembers",
      "outputs": [
        {
          "internalType": "bool",
          "name": "",
          "type": "bool"
        }
      ],
      "stateMutability": "view",
      "type": "function"
    },
    {
      "inputs": [
        {
          "internalType": "address",
          "name": "",
          "type": "address"
        }
      ],
      "name": "juryMembersData",
      "outputs": [
        {
          "internalType": "string",
          "name": "username",
          "type": "string"
        },
        {
          "internalType": "address",
          "name": "walletAddress",
          "type": "address"
        },
        {
          "internalType": "string",
          "name": "pictureUrl",
          "type": "string"
        }
      ],
      "stateMutability": "view",
      "type": "function"
    },
    {
      "inputs": [],
      "name": "owner",
      "outputs": [
        {
          "internalType": "address",
          "name": "",
          "type": "address"
        }
      ],
      "stateMutability": "view",
      "type": "function"
    },
    {
      "inputs": [
        {
          "internalType": "uint256",
          "name": "_voteSessionId",
          "type": "uint256"
        }
      ],
      "name": "passToNextRound",
      "outputs": [],
      "stateMutability": "nonpayable",
      "type": "function"
    },
    {
      "inputs": [
        {
          "internalType": "address",
          "name": "addr",
          "type": "address"
        }
      ],
      "name": "removeJuryMember",
      "outputs": [],
      "stateMutability": "nonpayable",
      "type": "function"
    },
    {
      "inputs": [],
      "name": "renounceOwnership",
      "outputs": [],
      "stateMutability": "nonpayable",
      "type": "function"
    },
    {
      "inputs": [],
      "name": "roundId",
      "outputs": [
        {
          "internalType": "uint256",
          "name": "",
          "type": "uint256"
        }
      ],
      "stateMutability": "view",
      "type": "function"
    },
    {
      "inputs": [],
      "name": "roundSessionNumber",
      "outputs": [
        {
          "internalType": "uint256",
          "name": "",
          "type": "uint256"
        }
      ],
      "stateMutability": "view",
      "type": "function"
    },
    {
      "inputs": [
        {
          "internalType": "uint256",
          "name": "",
          "type": "uint256"
        }
      ],
      "name": "sessionsIds",
      "outputs": [
        {
          "internalType": "uint256",
          "name": "",
          "type": "uint256"
        }
      ],
      "stateMutability": "view",
      "type": "function"
    },
    {
      "inputs": [
        {
          "internalType": "uint256",
          "name": "_voteSessionId",
          "type": "uint256"
        }
      ],
      "name": "startVoteSession",
      "outputs": [],
      "stateMutability": "nonpayable",
      "type": "function"
    },
    {
      "inputs": [
        {
          "internalType": "address",
          "name": "newOwner",
          "type": "address"
        }
      ],
      "name": "transferOwnership",
      "outputs": [],
      "stateMutability": "nonpayable",
      "type": "function"
    },
    {
      "inputs": [
        {
          "internalType": "uint256",
          "name": "_voteSessionId",
          "type": "uint256"
        },
        {
          "internalType": "uint256",
          "name": "_gameId",
          "type": "uint256"
        }
      ],
      "name": "vote",
      "outputs": [],
      "stateMutability": "nonpayable",
      "type": "function"
    },
    {
      "inputs": [],
      "name": "voteSessionId",
      "outputs": [
        {
          "internalType": "uint256",
          "name": "",
          "type": "uint256"
        }
      ],
      "stateMutability": "view",
      "type": "function"
    },
    {
      "inputs": [
        {
          "internalType": "uint256",
          "name": "",
          "type": "uint256"
        }
      ],
      "name": "voteSessions",
      "outputs": [
        {
          "internalType": "uint256",
          "name": "id",
          "type": "uint256"
        },
        {
          "internalType": "bool",
          "name": "started",
          "type": "bool"
        },
        {
          "internalType": "bool",
          "name": "ended",
          "type": "bool"
        },
        {
          "internalType": "uint256",
          "name": "rounds",
          "type": "uint256"
        },
        {
          "internalType": "uint256",
          "name": "currentRound",
          "type": "uint256"
        },
        {
          "internalType": "uint256",
          "name": "creationDate",
          "type": "uint256"
        },
        {
          "internalType": "uint256",
          "name": "startAt",
          "type": "uint256"
        }
      ],
      "stateMutability": "view",
      "type": "function"
    }
  ],
  "bytecode": "0x60806040523480156200001157600080fd5b50604051620069e3380380620069e38339818101604052810190620000379190620001a2565b620000576200004b6200009660201b60201c565b6200009e60201b60201c565b60016004819055506001600b819055506001600c819055506000811115620000865780600a819055506200008f565b6002600a819055505b50620001d4565b600033905090565b60008060009054906101000a900473ffffffffffffffffffffffffffffffffffffffff169050816000806101000a81548173ffffffffffffffffffffffffffffffffffffffff021916908373ffffffffffffffffffffffffffffffffffffffff1602179055508173ffffffffffffffffffffffffffffffffffffffff168173ffffffffffffffffffffffffffffffffffffffff167f8be0079c531659141344cd1fd0a4f28419497f9722a3daafe3b4186f6b6457e060405160405180910390a35050565b600080fd5b6000819050919050565b6200017c8162000167565b81146200018857600080fd5b50565b6000815190506200019c8162000171565b92915050565b600060208284031215620001bb57620001ba62000162565b5b6000620001cb848285016200018b565b91505092915050565b6167ff80620001e46000396000f3fe608060405234801561001057600080fd5b506004361061021c5760003560e01c8063933820ae11610125578063c8f0b177116100ad578063ea6b5b3f1161007c578063ea6b5b3f146106b2578063f1ea2723146106ce578063f2fde38b146106ea578063fac20ab814610706578063fdaff77c146107365761021c565b8063c8f0b17714610616578063d27fb90414610646578063d7c81b5514610676578063db1c45f9146106945761021c565b8063b384abef116100f4578063b384abef14610574578063baba491814610590578063c021b262146105ac578063c601a1eb146105c8578063c7cd6054146105f85761021c565b8063933820ae146104d657806399e1ec1714610506578063a97141a414610524578063b1bd69ce146105565761021c565b80636ac6e77e116101a85780638cd221c9116101775780638cd221c91461042e5780638da5cb5b1461044c5780638ee520711461046a5780638f32d59b146104885780638fd1424f146104a65761021c565b80636ac6e77e14610392578063715018a6146103c4578063778021e4146103ce578063794c7157146103fe5761021c565b8063148b02c5116101ef578063148b02c5146102c8578063209173c9146102f85780633188a078146103285780633b728d4e1461035857806366164632146103745761021c565b806306caebb6146102215780630966051314610257578063117a5b9014610287578063126a8697146102be575b600080fd5b61023b600480360381019061023691906145c1565b610754565b60405161024e9796959493929190614618565b60405180910390f35b610271600480360381019061026c91906145c1565b6107b0565b60405161027e919061483a565b60405180910390f35b6102a1600480360381019061029c91906145c1565b610bb9565b6040516102b59897969594939291906148b5565b60405180910390f35b6102c6610f61565b005b6102e260048036038101906102dd91906145c1565b6115d0565b6040516102ef919061495d565b60405180910390f35b610312600480360381019061030d91906149a4565b6115f0565b60405161031f91906149d1565b60405180910390f35b610342600480360381019061033d91906145c1565b611610565b60405161034f9190614cbd565b60405180910390f35b610372600480360381019061036d9190614e14565b611769565b005b61037c6119a1565b604051610389919061495d565b60405180910390f35b6103ac60048036038101906103a791906149a4565b6119d8565b6040516103bb93929190614e9f565b60405180910390f35b6103cc611b32565b005b6103e860048036038101906103e391906145c1565b611b46565b6040516103f59190614f81565b60405180910390f35b610418600480360381019061041391906145c1565b611bdb565b604051610425919061495d565b60405180910390f35b610436611bff565b604051610443919061495d565b60405180910390f35b610454611c05565b6040516104619190614f9c565b60405180910390f35b610472611c2e565b60405161047f91906150d0565b60405180910390f35b610490611e07565b60405161049d91906149d1565b60405180910390f35b6104c060048036038101906104bb9190615354565b611e44565b6040516104cd919061544c565b60405180910390f35b6104f060048036038101906104eb91906145c1565b611efb565b6040516104fd919061495d565b60405180910390f35b61050e611f0e565b60405161051b919061495d565b60405180910390f35b61053e600480360381019061053991906145c1565b611f14565b60405161054d93929190614e9f565b60405180910390f35b61055e61207e565b60405161056b919061495d565b60405180910390f35b61058e6004803603810190610589919061546e565b612088565b005b6105aa60048036038101906105a591906149a4565b612354565b005b6105c660048036038101906105c191906145c1565b6126ae565b005b6105e260048036038101906105dd919061546e565b612898565b6040516105ef9190615534565b60405180910390f35b6106006134b3565b60405161060d919061495d565b60405180910390f35b610630600480360381019061062b9190615556565b6134b9565b60405161063d919061495d565b60405180910390f35b610660600480360381019061065b9190615556565b61367d565b60405161066d91906149d1565b60405180910390f35b61067e6136a3565b60405161068b919061495d565b60405180910390f35b61069c6136a9565b6040516106a99190615658565b60405180910390f35b6106cc60048036038101906106c7919061567a565b613ad5565b005b6106e860048036038101906106e391906145c1565b613c49565b005b61070460048036038101906106ff91906149a4565b61402d565b005b610720600480360381019061071b91906145c1565b6140b0565b60405161072d919061483a565b60405180910390f35b61073e614161565b60405161074b91906158ec565b60405180910390f35b60076020528060005260406000206000915090508060000154908060010160009054906101000a900460ff16908060010160019054906101000a900460ff16908060020154908060030154908060040154908060050154905087565b6107b86143f7565b600582815481106107cc576107cb61590e565b5b906000526020600020906008020160405180610100016040529081600082015481526020016001820180546108009061596c565b80601f016020809104026020016040519081016040528092919081815260200182805461082c9061596c565b80156108795780601f1061084e57610100808354040283529160200191610879565b820191906000526020600020905b81548152906001019060200180831161085c57829003601f168201915b505050505081526020016002820180546108929061596c565b80601f01602080910402602001604051908101604052809291908181526020018280546108be9061596c565b801561090b5780601f106108e05761010080835404028352916020019161090b565b820191906000526020600020905b8154815290600101906020018083116108ee57829003601f168201915b505050505081526020016003820180546109249061596c565b80601f01602080910402602001604051908101604052809291908181526020018280546109509061596c565b801561099d5780601f106109725761010080835404028352916020019161099d565b820191906000526020600020905b81548152906001019060200180831161098057829003601f168201915b505050505081526020016004820180546109b69061596c565b80601f01602080910402602001604051908101604052809291908181526020018280546109e29061596c565b8015610a2f5780601f10610a0457610100808354040283529160200191610a2f565b820191906000526020600020905b815481529060010190602001808311610a1257829003601f168201915b50505050508152602001600582018054610a489061596c565b80601f0160208091040260200160405190810160405280929190818152602001828054610a749061596c565b8015610ac15780601f10610a9657610100808354040283529160200191610ac1565b820191906000526020600020905b815481529060010190602001808311610aa457829003601f168201915b50505050508152602001600682018054610ada9061596c565b80601f0160208091040260200160405190810160405280929190818152602001828054610b069061596c565b8015610b535780601f10610b2857610100808354040283529160200191610b53565b820191906000526020600020905b815481529060010190602001808311610b3657829003601f168201915b505050505081526020016007820160009054906101000a900473ffffffffffffffffffffffffffffffffffffffff1673ffffffffffffffffffffffffffffffffffffffff1673ffffffffffffffffffffffffffffffffffffffff16815250509050919050565b60058181548110610bc957600080fd5b9060005260206000209060080201600091509050806000015490806001018054610bf29061596c565b80601f0160208091040260200160405190810160405280929190818152602001828054610c1e9061596c565b8015610c6b5780601f10610c4057610100808354040283529160200191610c6b565b820191906000526020600020905b815481529060010190602001808311610c4e57829003601f168201915b505050505090806002018054610c809061596c565b80601f0160208091040260200160405190810160405280929190818152602001828054610cac9061596c565b8015610cf95780601f10610cce57610100808354040283529160200191610cf9565b820191906000526020600020905b815481529060010190602001808311610cdc57829003601f168201915b505050505090806003018054610d0e9061596c565b80601f0160208091040260200160405190810160405280929190818152602001828054610d3a9061596c565b8015610d875780601f10610d5c57610100808354040283529160200191610d87565b820191906000526020600020905b815481529060010190602001808311610d6a57829003601f168201915b505050505090806004018054610d9c9061596c565b80601f0160208091040260200160405190810160405280929190818152602001828054610dc89061596c565b8015610e155780601f10610dea57610100808354040283529160200191610e15565b820191906000526020600020905b815481529060010190602001808311610df857829003601f168201915b505050505090806005018054610e2a9061596c565b80601f0160208091040260200160405190810160405280929190818152602001828054610e569061596c565b8015610ea35780601f10610e7857610100808354040283529160200191610ea3565b820191906000526020600020905b815481529060010190602001808311610e8657829003601f168201915b505050505090806006018054610eb89061596c565b80601f0160208091040260200160405190810160405280929190818152602001828054610ee49061596c565b8015610f315780601f10610f0657610100808354040283529160200191610f31565b820191906000526020600020905b815481529060010190602001808311610f1457829003601f168201915b5050505050908060070160009054906101000a900473ffffffffffffffffffffffffffffffffffffffff16905088565b610f696142ad565b610f71611c05565b73ffffffffffffffffffffffffffffffffffffffff163373ffffffffffffffffffffffffffffffffffffffff1614610fde576040517f08c379a0000000000000000000000000000000000000000000000000000000008152600401610fd590615a0f565b60405180910390fd5b6006600b54908060018154018082558091505060019003906000526020600020016000909190919091505560086000600b5481526020019081526020016000206040518060800160405280600c548152602001600181526020016114656005805480602002602001604051908101604052809291908181526020016000905b8282101561145c5783829060005260206000209060080201604051806101000160405290816000820154815260200160018201805461109b9061596c565b80601f01602080910402602001604051908101604052809291908181526020018280546110c79061596c565b80156111145780601f106110e957610100808354040283529160200191611114565b820191906000526020600020905b8154815290600101906020018083116110f757829003601f168201915b5050505050815260200160028201805461112d9061596c565b80601f01602080910402602001604051908101604052809291908181526020018280546111599061596c565b80156111a65780601f1061117b576101008083540402835291602001916111a6565b820191906000526020600020905b81548152906001019060200180831161118957829003601f168201915b505050505081526020016003820180546111bf9061596c565b80601f01602080910402602001604051908101604052809291908181526020018280546111eb9061596c565b80156112385780601f1061120d57610100808354040283529160200191611238565b820191906000526020600020905b81548152906001019060200180831161121b57829003601f168201915b505050505081526020016004820180546112519061596c565b80601f016020809104026020016040519081016040528092919081815260200182805461127d9061596c565b80156112ca5780601f1061129f576101008083540402835291602001916112ca565b820191906000526020600020905b8154815290600101906020018083116112ad57829003601f168201915b505050505081526020016005820180546112e39061596c565b80601f016020809104026020016040519081016040528092919081815260200182805461130f9061596c565b801561135c5780601f106113315761010080835404028352916020019161135c565b820191906000526020600020905b81548152906001019060200180831161133f57829003601f168201915b505050505081526020016006820180546113759061596c565b80601f01602080910402602001604051908101604052809291908181526020018280546113a19061596c565b80156113ee5780601f106113c3576101008083540402835291602001916113ee565b820191906000526020600020905b8154815290600101906020018083116113d157829003601f168201915b505050505081526020016007820160009054906101000a900473ffffffffffffffffffffffffffffffffffffffff1673ffffffffffffffffffffffffffffffffffffffff1673ffffffffffffffffffffffffffffffffffffffff16815250508152602001906001019061105d565b50505050611e44565b815260200160008152509080600181540180825580915050600190039060005260206000209060040201600090919091909150600082015181600001556020820151816001015560408201518160020190805190602001906114c8929190614452565b506060820151816003015550506040518060e00160405280600b548152602001600015158152602001600015158152602001600a54815260200160018152602001428152602001600081525060076000600b5481526020019081526020016000206000820151816000015560208201518160010160006101000a81548160ff02191690831515021790555060408201518160010160016101000a81548160ff021916908315150217905550606082015181600201556080820151816003015560a0820151816004015560c08201518160050155905050600c60008154809291906115b190615a5e565b9190505550600b60008154809291906115c990615a5e565b9190505550565b600060076000838152602001908152602001600020600301549050919050565b60026020528060005260406000206000915054906101000a900460ff1681565b60606007600083815260200190815260200160002060010160019054906101000a900460ff16611675576040517f08c379a000000000000000000000000000000000000000000000000000000000815260040161166c90615af2565b60405180910390fd5b6000600760008481526020019081526020016000206002015467ffffffffffffffff8111156116a7576116a6614ce9565b5b6040519080825280602002602001820160405280156116e057816020015b6116cd61449f565b8152602001906001900390816116c55790505b50905060005b600760008581526020019081526020016000206002015481101561175f57604051806040016040528082815260200161172b866001856117269190615b12565b612898565b8152508282815181106117415761174061590e565b5b6020026020010181905250808061175790615a5e565b9150506116e6565b5080915050919050565b6117716142ad565b611779611c05565b73ffffffffffffffffffffffffffffffffffffffff163373ffffffffffffffffffffffffffffffffffffffff16146117e6576040517f08c379a00000000000000000000000000000000000000000000000000000000081526004016117dd90615bb8565b60405180910390fd5b600260008473ffffffffffffffffffffffffffffffffffffffff1673ffffffffffffffffffffffffffffffffffffffff16815260200190815260200160002060009054906101000a900460ff1615611873576040517f08c379a000000000000000000000000000000000000000000000000000000000815260040161186a90615c4a565b60405180910390fd5b6001600260008573ffffffffffffffffffffffffffffffffffffffff1673ffffffffffffffffffffffffffffffffffffffff16815260200190815260200160002060006101000a81548160ff021916908315150217905550600160405180606001604052808481526020018573ffffffffffffffffffffffffffffffffffffffff168152602001838152509080600181540180825580915050600190039060005260206000209060030201600090919091909150600082015181600001908161193c9190615e16565b5060208201518160010160006101000a81548173ffffffffffffffffffffffffffffffffffffffff021916908373ffffffffffffffffffffffffffffffffffffffff16021790555060408201518160020190816119999190615e16565b505050505050565b6000600660016006805490506119b79190615ee8565b815481106119c8576119c761590e565b5b9060005260206000200154905090565b60036020528060005260406000206000915090508060000180546119fb9061596c565b80601f0160208091040260200160405190810160405280929190818152602001828054611a279061596c565b8015611a745780601f10611a4957610100808354040283529160200191611a74565b820191906000526020600020905b815481529060010190602001808311611a5757829003601f168201915b5050505050908060010160009054906101000a900473ffffffffffffffffffffffffffffffffffffffff1690806002018054611aaf9061596c565b80601f0160208091040260200160405190810160405280929190818152602001828054611adb9061596c565b8015611b285780601f10611afd57610100808354040283529160200191611b28565b820191906000526020600020905b815481529060010190602001808311611b0b57829003601f168201915b5050505050905083565b611b3a6142ad565b611b44600061432b565b565b611b4e6144b9565b600760008381526020019081526020016000206040518060e0016040529081600082015481526020016001820160009054906101000a900460ff161515151581526020016001820160019054906101000a900460ff161515151581526020016002820154815260200160038201548152602001600482015481526020016005820154815250509050919050565b60068181548110611beb57600080fd5b906000526020600020016000915090505481565b600c5481565b60008060009054906101000a900473ffffffffffffffffffffffffffffffffffffffff16905090565b60606001805480602002602001604051908101604052809291908181526020016000905b82821015611dfe5783829060005260206000209060030201604051806060016040529081600082018054611c859061596c565b80601f0160208091040260200160405190810160405280929190818152602001828054611cb19061596c565b8015611cfe5780601f10611cd357610100808354040283529160200191611cfe565b820191906000526020600020905b815481529060010190602001808311611ce157829003601f168201915b505050505081526020016001820160009054906101000a900473ffffffffffffffffffffffffffffffffffffffff1673ffffffffffffffffffffffffffffffffffffffff1673ffffffffffffffffffffffffffffffffffffffff168152602001600282018054611d6d9061596c565b80601f0160208091040260200160405190810160405280929190818152602001828054611d999061596c565b8015611de65780601f10611dbb57610100808354040283529160200191611de6565b820191906000526020600020905b815481529060010190602001808311611dc957829003601f168201915b50505050508152505081526020019060010190611c52565b50505050905090565b60003373ffffffffffffffffffffffffffffffffffffffff16611e28611c05565b73ffffffffffffffffffffffffffffffffffffffff1614905090565b60606000825167ffffffffffffffff811115611e6357611e62614ce9565b5b604051908082528060200260200182016040528015611e915781602001602082028036833780820191505090505b50905060005b8351811015611ef157838181518110611eb357611eb261590e565b5b602002602001015160000151828281518110611ed257611ed161590e565b5b6020026020010181815250508080611ee990615a5e565b915050611e97565b5080915050919050565b6000611f0782336134b9565b9050919050565b600a5481565b60018181548110611f2457600080fd5b9060005260206000209060030201600091509050806000018054611f479061596c565b80601f0160208091040260200160405190810160405280929190818152602001828054611f739061596c565b8015611fc05780601f10611f9557610100808354040283529160200191611fc0565b820191906000526020600020905b815481529060010190602001808311611fa357829003601f168201915b5050505050908060010160009054906101000a900473ffffffffffffffffffffffffffffffffffffffff1690806002018054611ffb9061596c565b80601f01602080910402602001604051908101604052809291908181526020018280546120279061596c565b80156120745780601f1061204957610100808354040283529160200191612074565b820191906000526020600020905b81548152906001019060200180831161205757829003601f168201915b5050505050905083565b6000600b54905090565b6007600083815260200190815260200160002060010160009054906101000a900460ff166120eb576040517f08c379a00000000000000000000000000000000000000000000000000000000081526004016120e290615f68565b60405180910390fd5b6007600083815260200190815260200160002060010160019054906101000a900460ff161561214f576040517f08c379a000000000000000000000000000000000000000000000000000000000815260040161214690615fd4565b60405180910390fd5b600061215a836115d0565b905060006008600085815260200190815260200160002060018361217e9190615ee8565b8154811061218f5761218e61590e565b5b90600052602060002090600402016002016001846121ad9190615ee8565b815481106121be576121bd61590e565b5b906000526020600020015411612209576040517f08c379a000000000000000000000000000000000000000000000000000000000815260040161220090616066565b60405180910390fd5b612213833361367d565b15612253576040517f08c379a000000000000000000000000000000000000000000000000000000000815260040161224a906160f8565b60405180910390fd5b60096000600860008681526020019081526020016000206001846122779190615ee8565b815481106122885761228761590e565b5b906000526020600020906004020160000154815260200190815260200160002060405180604001604052803373ffffffffffffffffffffffffffffffffffffffff16815260200184815250908060018154018082558091505060019003906000526020600020906002020160009091909190915060008201518160000160006101000a81548173ffffffffffffffffffffffffffffffffffffffff021916908373ffffffffffffffffffffffffffffffffffffffff160217905550602082015181600101555050505050565b61235c6142ad565b612364611c05565b73ffffffffffffffffffffffffffffffffffffffff163373ffffffffffffffffffffffffffffffffffffffff16146123d1576040517f08c379a00000000000000000000000000000000000000000000000000000000081526004016123c89061618a565b60405180910390fd5b600260008273ffffffffffffffffffffffffffffffffffffffff1673ffffffffffffffffffffffffffffffffffffffff16815260200190815260200160002060009054906101000a900460ff1661245d576040517f08c379a00000000000000000000000000000000000000000000000000000000081526004016124549061621c565b60405180910390fd5b6000600260008373ffffffffffffffffffffffffffffffffffffffff1673ffffffffffffffffffffffffffffffffffffffff16815260200190815260200160002060006101000a81548160ff02191690831515021790555060005b6001805490508110156126aa578173ffffffffffffffffffffffffffffffffffffffff16600182815481106124f0576124ef61590e565b5b906000526020600020906003020160010160009054906101000a900473ffffffffffffffffffffffffffffffffffffffff1673ffffffffffffffffffffffffffffffffffffffff160361269757600180808054905061254f9190615ee8565b815481106125605761255f61590e565b5b9060005260206000209060030201600182815481106125825761258161590e565b5b9060005260206000209060030201600082018160000190816125a49190616252565b506001820160009054906101000a900473ffffffffffffffffffffffffffffffffffffffff168160010160006101000a81548173ffffffffffffffffffffffffffffffffffffffff021916908373ffffffffffffffffffffffffffffffffffffffff160217905550600282018160020190816126209190616252565b5090505060018054806126365761263561633a565b5b60019003818190600052602060002090600302016000808201600061265b91906144fa565b6001820160006101000a81549073ffffffffffffffffffffffffffffffffffffffff021916905560028201600061269291906144fa565b505090555b80806126a290615a5e565b9150506124b8565b5050565b6126b66142ad565b6126be611c05565b73ffffffffffffffffffffffffffffffffffffffff163373ffffffffffffffffffffffffffffffffffffffff161461272b576040517f08c379a0000000000000000000000000000000000000000000000000000000008152600401612722906163db565b60405180910390fd5b80600760008381526020019081526020016000206000015414612783576040517f08c379a000000000000000000000000000000000000000000000000000000000815260040161277a90616447565b60405180910390fd5b6007600082815260200190815260200160002060010160019054906101000a900460ff16156127e7576040517f08c379a00000000000000000000000000000000000000000000000000000000081526004016127de906164d9565b60405180910390fd5b6007600082815260200190815260200160002060010160009054906101000a900460ff161561284b576040517f08c379a00000000000000000000000000000000000000000000000000000000081526004016128429061656b565b60405180910390fd5b60016007600083815260200190815260200160002060010160006101000a81548160ff02191690831515021790555042600760008381526020019081526020016000206005018190555050565b606060006001905060076000858152602001908152602001600020600201548310156129855760038360076000878152602001908152602001600020600201546128e29190615ee8565b6128ec919061658b565b9050806008600086815260200190815260200160002060018561290f9190615ee8565b815481106129205761291f61590e565b5b9060005260206000209060040201600201805490501015612984576008600085815260200190815260200160002060018461295b9190615ee8565b8154811061296c5761296b61590e565b5b90600052602060002090600402016002018054905090505b5b600060096000600860008881526020019081526020016000206001876129ab9190615ee8565b815481106129bc576129bb61590e565b5b9060005260206000209060040201600001548152602001908152602001600020805480602002602001604051908101604052809291908181526020016000905b82821015612a8e57838290600052602060002090600202016040518060400160405290816000820160009054906101000a900473ffffffffffffffffffffffffffffffffffffffff1673ffffffffffffffffffffffffffffffffffffffff1673ffffffffffffffffffffffffffffffffffffffff168152602001600182015481525050815260200190600101906129fc565b505050509050600060086000878152602001908152602001600020600186612ab69190615ee8565b81548110612ac757612ac661590e565b5b9060005260206000209060040201600201805480602002602001604051908101604052809291908181526020018280548015612b2257602002820191906000526020600020905b815481526020019060010190808311612b0e575b50505050509050600060086000888152602001908152602001600020600187612b4b9190615ee8565b81548110612b5c57612b5b61590e565b5b90600052602060002090600402016002018054905067ffffffffffffffff811115612b8a57612b89614ce9565b5b604051908082528060200260200182016040528015612bb85781602001602082028036833780820191505090505b50905060005b8251811015612bfb576000828281518110612bdc57612bdb61590e565b5b6020026020010181815250508080612bf390615a5e565b915050612bbe565b5060005b8351811015612d535760005b8351811015612d3f57838181518110612c2757612c2661590e565b5b6020026020010151858381518110612c4257612c4161590e565b5b60200260200101516020015103612d2c576001151560026000878581518110612c6e57612c6d61590e565b5b60200260200101516000015173ffffffffffffffffffffffffffffffffffffffff1673ffffffffffffffffffffffffffffffffffffffff16815260200190815260200160002060009054906101000a900460ff16151503612cfe57601e838281518110612cde57612cdd61590e565b5b60200260200101818151612cf29190615b12565b91508181525050612d2b565b828181518110612d1157612d1061590e565b5b602002602001018051809190612d2690615a5e565b815250505b5b8080612d3790615a5e565b915050612c0b565b508080612d4b90615a5e565b915050612bff565b506000806000808767ffffffffffffffff811115612d7457612d73614ce9565b5b604051908082528060200260200182016040528015612dad57816020015b612d9a61453a565b815260200190600190039081612d925790505b50905060005b888110156134a15760005b8751811015612e3a5785878281518110612ddb57612dda61590e565b5b60200260200101511115612e2757868181518110612dfc57612dfb61590e565b5b60200260200101519550878181518110612e1957612e1861590e565b5b602002602001015194508093505b8080612e3290615a5e565b915050612dbe565b5060058481548110612e4f57612e4e61590e565b5b90600052602060002090600802016040518061010001604052908160008201548152602001600182018054612e839061596c565b80601f0160208091040260200160405190810160405280929190818152602001828054612eaf9061596c565b8015612efc5780601f10612ed157610100808354040283529160200191612efc565b820191906000526020600020905b815481529060010190602001808311612edf57829003601f168201915b50505050508152602001600282018054612f159061596c565b80601f0160208091040260200160405190810160405280929190818152602001828054612f419061596c565b8015612f8e5780601f10612f6357610100808354040283529160200191612f8e565b820191906000526020600020905b815481529060010190602001808311612f7157829003601f168201915b50505050508152602001600382018054612fa79061596c565b80601f0160208091040260200160405190810160405280929190818152602001828054612fd39061596c565b80156130205780601f10612ff557610100808354040283529160200191613020565b820191906000526020600020905b81548152906001019060200180831161300357829003601f168201915b505050505081526020016004820180546130399061596c565b80601f01602080910402602001604051908101604052809291908181526020018280546130659061596c565b80156130b25780601f10613087576101008083540402835291602001916130b2565b820191906000526020600020905b81548152906001019060200180831161309557829003601f168201915b505050505081526020016005820180546130cb9061596c565b80601f01602080910402602001604051908101604052809291908181526020018280546130f79061596c565b80156131445780601f1061311957610100808354040283529160200191613144565b820191906000526020600020905b81548152906001019060200180831161312757829003601f168201915b5050505050815260200160068201805461315d9061596c565b80601f01602080910402602001604051908101604052809291908181526020018280546131899061596c565b80156131d65780601f106131ab576101008083540402835291602001916131d6565b820191906000526020600020905b8154815290600101906020018083116131b957829003601f168201915b505050505081526020016007820160009054906101000a900473ffffffffffffffffffffffffffffffffffffffff1673ffffffffffffffffffffffffffffffffffffffff1673ffffffffffffffffffffffffffffffffffffffff16815250508282815181106132485761324761590e565b5b6020026020010151600001819052508482828151811061326b5761326a61590e565b5b6020026020010151602001818152505060006001885161328b9190615ee8565b67ffffffffffffffff8111156132a4576132a3614ce9565b5b6040519080825280602002602001820160405280156132d25781602001602082028036833780820191505090505b5090506000600189516132e59190615ee8565b67ffffffffffffffff8111156132fe576132fd614ce9565b5b60405190808252806020026020018201604052801561332c5781602001602082028036833780820191505090505b50905060005b895181101561347957858110156133b8578981815181106133565761335561590e565b5b60200260200101518282815181106133715761337061590e565b5b6020026020010181815250508881815181106133905761338f61590e565b5b60200260200101518382815181106133ab576133aa61590e565b5b6020026020010181815250505b85811180156133d4575060006001826133d19190615ee8565b10155b15613466578981815181106133ec576133eb61590e565b5b6020026020010151826001836134029190615ee8565b815181106134135761341261590e565b5b6020026020010181815250508881815181106134325761343161590e565b5b6020026020010151836001836134489190615ee8565b815181106134595761345861590e565b5b6020026020010181815250505b808061347190615a5e565b915050613332565b508098508197506000965060009550600094505050808061349990615a5e565b915050612db3565b50809850505050505050505092915050565b600b5481565b6000806134c5846115d0565b9050600060096000600860008881526020019081526020016000206001856134ed9190615ee8565b815481106134fe576134fd61590e565b5b9060005260206000209060040201600001548152602001908152602001600020805480602002602001604051908101604052809291908181526020016000905b828210156135d057838290600052602060002090600202016040518060400160405290816000820160009054906101000a900473ffffffffffffffffffffffffffffffffffffffff1673ffffffffffffffffffffffffffffffffffffffff1673ffffffffffffffffffffffffffffffffffffffff1681526020016001820154815250508152602001906001019061353e565b50505050905060005b815181101561366f578473ffffffffffffffffffffffffffffffffffffffff1682828151811061360c5761360b61590e565b5b60200260200101516000015173ffffffffffffffffffffffffffffffffffffffff160361365c578181815181106136465761364561590e565b5b6020026020010151602001519350505050613677565b808061366790615a5e565b9150506135d9565b506000925050505b92915050565b60008061368a84846134b9565b14613698576001905061369d565b600090505b92915050565b60045481565b60606005805480602002602001604051908101604052809291908181526020016000905b82821015613acc5783829060005260206000209060080201604051806101000160405290816000820154815260200160018201805461370b9061596c565b80601f01602080910402602001604051908101604052809291908181526020018280546137379061596c565b80156137845780601f1061375957610100808354040283529160200191613784565b820191906000526020600020905b81548152906001019060200180831161376757829003601f168201915b5050505050815260200160028201805461379d9061596c565b80601f01602080910402602001604051908101604052809291908181526020018280546137c99061596c565b80156138165780601f106137eb57610100808354040283529160200191613816565b820191906000526020600020905b8154815290600101906020018083116137f957829003601f168201915b5050505050815260200160038201805461382f9061596c565b80601f016020809104026020016040519081016040528092919081815260200182805461385b9061596c565b80156138a85780601f1061387d576101008083540402835291602001916138a8565b820191906000526020600020905b81548152906001019060200180831161388b57829003601f168201915b505050505081526020016004820180546138c19061596c565b80601f01602080910402602001604051908101604052809291908181526020018280546138ed9061596c565b801561393a5780601f1061390f5761010080835404028352916020019161393a565b820191906000526020600020905b81548152906001019060200180831161391d57829003601f168201915b505050505081526020016005820180546139539061596c565b80601f016020809104026020016040519081016040528092919081815260200182805461397f9061596c565b80156139cc5780601f106139a1576101008083540402835291602001916139cc565b820191906000526020600020905b8154815290600101906020018083116139af57829003601f168201915b505050505081526020016006820180546139e59061596c565b80601f0160208091040260200160405190810160405280929190818152602001828054613a119061596c565b8015613a5e5780601f10613a3357610100808354040283529160200191613a5e565b820191906000526020600020905b815481529060010190602001808311613a4157829003601f168201915b505050505081526020016007820160009054906101000a900473ffffffffffffffffffffffffffffffffffffffff1673ffffffffffffffffffffffffffffffffffffffff1673ffffffffffffffffffffffffffffffffffffffff1681525050815260200190600101906136cd565b50505050905090565b600560405180610100016040528060045481526020018881526020018781526020018681526020018581526020018481526020018381526020013373ffffffffffffffffffffffffffffffffffffffff168152509080600181540180825580915050600190039060005260206000209060080201600090919091909150600082015181600001556020820151816001019081613b719190615e16565b506040820151816002019081613b879190615e16565b506060820151816003019081613b9d9190615e16565b506080820151816004019081613bb39190615e16565b5060a0820151816005019081613bc99190615e16565b5060c0820151816006019081613bdf9190615e16565b5060e08201518160070160006101000a81548173ffffffffffffffffffffffffffffffffffffffff021916908373ffffffffffffffffffffffffffffffffffffffff160217905550505060046000815480929190613c3c90615a5e565b9190505550505050505050565b613c516142ad565b613c59611c05565b73ffffffffffffffffffffffffffffffffffffffff163373ffffffffffffffffffffffffffffffffffffffff1614613cc6576040517f08c379a0000000000000000000000000000000000000000000000000000000008152600401613cbd9061663f565b60405180910390fd5b6007600082815260200190815260200160002060010160009054906101000a900460ff16613d29576040517f08c379a0000000000000000000000000000000000000000000000000000000008152600401613d20906166ab565b60405180910390fd5b6007600082815260200190815260200160002060010160019054906101000a900460ff1615613d8d576040517f08c379a0000000000000000000000000000000000000000000000000000000008152600401613d8490615fd4565b60405180910390fd5b6000613d98826115d0565b905060076000838152602001908152602001600020600201548103613e325760016007600084815260200190815260200160002060010160016101000a81548160ff0219169083151502179055504260086000848152602001908152602001600020600183613e079190615ee8565b81548110613e1857613e1761590e565b5b906000526020600020906004020160030181905550614029565b6000613e3e8383612898565b90506000815167ffffffffffffffff811115613e5d57613e5c614ce9565b5b604051908082528060200260200182016040528015613e9657816020015b613e836143f7565b815260200190600190039081613e7b5790505b50905060005b8251811015613ef557828181518110613eb857613eb761590e565b5b602002602001015160000151828281518110613ed757613ed661590e565b5b60200260200101819052508080613eed90615a5e565b915050613e9c565b504260086000868152602001908152602001600020600185613f179190615ee8565b81548110613f2857613f2761590e565b5b906000526020600020906004020160030181905550600760008581526020019081526020016000206003016000815480929190613f6490615a5e565b9190505550600860008581526020019081526020016000206040518060800160405280600c548152602001858152602001613f9e84611e44565b81526020016000815250908060018154018082558091505060019003906000526020600020906004020160009091909190915060008201518160000155602082015181600101556040820151816002019080519060200190614001929190614452565b50606082015181600301555050600c600081548092919061402190615a5e565b919050555050505b5050565b6140356142ad565b600073ffffffffffffffffffffffffffffffffffffffff168173ffffffffffffffffffffffffffffffffffffffff16036140a4576040517f08c379a000000000000000000000000000000000000000000000000000000000815260040161409b9061673d565b60405180910390fd5b6140ad8161432b565b50565b6140b86143f7565b6007600083815260200190815260200160002060010160019054906101000a900460ff1661411b576040517f08c379a000000000000000000000000000000000000000000000000000000000815260040161411290615af2565b60405180910390fd5b61413b826007600085815260200190815260200160002060020154612898565b60008151811061414e5761414d61590e565b5b6020026020010151600001519050919050565b6060600060068054905067ffffffffffffffff81111561418457614183614ce9565b5b6040519080825280602002602001820160405280156141bd57816020015b6141aa6144b9565b8152602001906001900390816141a25790505b50905060005b6006805490508110156142a55760076000600683815481106141e8576141e761590e565b5b906000526020600020015481526020019081526020016000206040518060e0016040529081600082015481526020016001820160009054906101000a900460ff161515151581526020016001820160019054906101000a900460ff161515151581526020016002820154815260200160038201548152602001600482015481526020016005820154815250508282815181106142875761428661590e565b5b6020026020010181905250808061429d90615a5e565b9150506141c3565b508091505090565b6142b56143ef565b73ffffffffffffffffffffffffffffffffffffffff166142d3611c05565b73ffffffffffffffffffffffffffffffffffffffff1614614329576040517f08c379a0000000000000000000000000000000000000000000000000000000008152600401614320906167a9565b60405180910390fd5b565b60008060009054906101000a900473ffffffffffffffffffffffffffffffffffffffff169050816000806101000a81548173ffffffffffffffffffffffffffffffffffffffff021916908373ffffffffffffffffffffffffffffffffffffffff1602179055508173ffffffffffffffffffffffffffffffffffffffff168173ffffffffffffffffffffffffffffffffffffffff167f8be0079c531659141344cd1fd0a4f28419497f9722a3daafe3b4186f6b6457e060405160405180910390a35050565b600033905090565b60405180610100016040528060008152602001606081526020016060815260200160608152602001606081526020016060815260200160608152602001600073ffffffffffffffffffffffffffffffffffffffff1681525090565b82805482825590600052602060002090810192821561448e579160200282015b8281111561448d578251825591602001919060010190614472565b5b50905061449b919061455a565b5090565b604051806040016040528060008152602001606081525090565b6040518060e0016040528060008152602001600015158152602001600015158152602001600081526020016000815260200160008152602001600081525090565b5080546145069061596c565b6000825580601f106145185750614537565b601f016020900490600052602060002090810190614536919061455a565b5b50565b604051806040016040528061454d6143f7565b8152602001600081525090565b5b8082111561457357600081600090555060010161455b565b5090565b6000604051905090565b600080fd5b600080fd5b6000819050919050565b61459e8161458b565b81146145a957600080fd5b50565b6000813590506145bb81614595565b92915050565b6000602082840312156145d7576145d6614581565b5b60006145e5848285016145ac565b91505092915050565b6145f78161458b565b82525050565b60008115159050919050565b614612816145fd565b82525050565b600060e08201905061462d600083018a6145ee565b61463a6020830189614609565b6146476040830188614609565b61465460608301876145ee565b61466160808301866145ee565b61466e60a08301856145ee565b61467b60c08301846145ee565b98975050505050505050565b6146908161458b565b82525050565b600081519050919050565b600082825260208201905092915050565b60005b838110156146d05780820151818401526020810190506146b5565b60008484015250505050565b6000601f19601f8301169050919050565b60006146f882614696565b61470281856146a1565b93506147128185602086016146b2565b61471b816146dc565b840191505092915050565b600073ffffffffffffffffffffffffffffffffffffffff82169050919050565b600061475182614726565b9050919050565b61476181614746565b82525050565b6000610100830160008301516147806000860182614687565b506020830151848203602086015261479882826146ed565b915050604083015184820360408601526147b282826146ed565b915050606083015184820360608601526147cc82826146ed565b915050608083015184820360808601526147e682826146ed565b91505060a083015184820360a086015261480082826146ed565b91505060c083015184820360c086015261481a82826146ed565b91505060e083015161482f60e0860182614758565b508091505092915050565b600060208201905081810360008301526148548184614767565b905092915050565b600082825260208201905092915050565b600061487882614696565b614882818561485c565b93506148928185602086016146b2565b61489b816146dc565b840191505092915050565b6148af81614746565b82525050565b6000610100820190506148cb600083018b6145ee565b81810360208301526148dd818a61486d565b905081810360408301526148f1818961486d565b90508181036060830152614905818861486d565b90508181036080830152614919818761486d565b905081810360a083015261492d818661486d565b905081810360c0830152614941818561486d565b905061495060e08301846148a6565b9998505050505050505050565b600060208201905061497260008301846145ee565b92915050565b61498181614746565b811461498c57600080fd5b50565b60008135905061499e81614978565b92915050565b6000602082840312156149ba576149b9614581565b5b60006149c88482850161498f565b91505092915050565b60006020820190506149e66000830184614609565b92915050565b600081519050919050565b600082825260208201905092915050565b6000819050602082019050919050565b600081519050919050565b600082825260208201905092915050565b6000819050602082019050919050565b600061010083016000830151614a5d6000860182614687565b5060208301518482036020860152614a7582826146ed565b91505060408301518482036040860152614a8f82826146ed565b91505060608301518482036060860152614aa982826146ed565b91505060808301518482036080860152614ac382826146ed565b91505060a083015184820360a0860152614add82826146ed565b91505060c083015184820360c0860152614af782826146ed565b91505060e0830151614b0c60e0860182614758565b508091505092915050565b60006040830160008301518482036000860152614b348282614a44565b9150506020830151614b496020860182614687565b508091505092915050565b6000614b608383614b17565b905092915050565b6000602082019050919050565b6000614b8082614a18565b614b8a8185614a23565b935083602082028501614b9c85614a34565b8060005b85811015614bd85784840389528151614bb98582614b54565b9450614bc483614b68565b925060208a01995050600181019050614ba0565b50829750879550505050505092915050565b6000604083016000830151614c026000860182614687565b5060208301518482036020860152614c1a8282614b75565b9150508091505092915050565b6000614c338383614bea565b905092915050565b6000602082019050919050565b6000614c53826149ec565b614c5d81856149f7565b935083602082028501614c6f85614a08565b8060005b85811015614cab5784840389528151614c8c8582614c27565b9450614c9783614c3b565b925060208a01995050600181019050614c73565b50829750879550505050505092915050565b60006020820190508181036000830152614cd78184614c48565b905092915050565b600080fd5b600080fd5b7f4e487b7100000000000000000000000000000000000000000000000000000000600052604160045260246000fd5b614d21826146dc565b810181811067ffffffffffffffff82111715614d4057614d3f614ce9565b5b80604052505050565b6000614d53614577565b9050614d5f8282614d18565b919050565b600067ffffffffffffffff821115614d7f57614d7e614ce9565b5b614d88826146dc565b9050602081019050919050565b82818337600083830152505050565b6000614db7614db284614d64565b614d49565b905082815260208101848484011115614dd357614dd2614ce4565b5b614dde848285614d95565b509392505050565b600082601f830112614dfb57614dfa614cdf565b5b8135614e0b848260208601614da4565b91505092915050565b600080600060608486031215614e2d57614e2c614581565b5b6000614e3b8682870161498f565b935050602084013567ffffffffffffffff811115614e5c57614e5b614586565b5b614e6886828701614de6565b925050604084013567ffffffffffffffff811115614e8957614e88614586565b5b614e9586828701614de6565b9150509250925092565b60006060820190508181036000830152614eb9818661486d565b9050614ec860208301856148a6565b8181036040830152614eda818461486d565b9050949350505050565b614eed816145fd565b82525050565b60e082016000820151614f096000850182614687565b506020820151614f1c6020850182614ee4565b506040820151614f2f6040850182614ee4565b506060820151614f426060850182614687565b506080820151614f556080850182614687565b5060a0820151614f6860a0850182614687565b5060c0820151614f7b60c0850182614687565b50505050565b600060e082019050614f966000830184614ef3565b92915050565b6000602082019050614fb160008301846148a6565b92915050565b600081519050919050565b600082825260208201905092915050565b6000819050602082019050919050565b6000606083016000830151848203600086015261500082826146ed565b91505060208301516150156020860182614758565b506040830151848203604086015261502d82826146ed565b9150508091505092915050565b60006150468383614fe3565b905092915050565b6000602082019050919050565b600061506682614fb7565b6150708185614fc2565b93508360208202850161508285614fd3565b8060005b858110156150be578484038952815161509f858261503a565b94506150aa8361504e565b925060208a01995050600181019050615086565b50829750879550505050505092915050565b600060208201905081810360008301526150ea818461505b565b905092915050565b600067ffffffffffffffff82111561510d5761510c614ce9565b5b602082029050602081019050919050565b600080fd5b600080fd5b600080fd5b6000610100828403121561514457615143615123565b5b61514f610100614d49565b9050600061515f848285016145ac565b600083015250602082013567ffffffffffffffff81111561518357615182615128565b5b61518f84828501614de6565b602083015250604082013567ffffffffffffffff8111156151b3576151b2615128565b5b6151bf84828501614de6565b604083015250606082013567ffffffffffffffff8111156151e3576151e2615128565b5b6151ef84828501614de6565b606083015250608082013567ffffffffffffffff81111561521357615212615128565b5b61521f84828501614de6565b60808301525060a082013567ffffffffffffffff81111561524357615242615128565b5b61524f84828501614de6565b60a08301525060c082013567ffffffffffffffff81111561527357615272615128565b5b61527f84828501614de6565b60c08301525060e06152938482850161498f565b60e08301525092915050565b60006152b26152ad846150f2565b614d49565b905080838252602082019050602084028301858111156152d5576152d461511e565b5b835b8181101561531c57803567ffffffffffffffff8111156152fa576152f9614cdf565b5b808601615307898261512d565b855260208501945050506020810190506152d7565b5050509392505050565b600082601f83011261533b5761533a614cdf565b5b813561534b84826020860161529f565b91505092915050565b60006020828403121561536a57615369614581565b5b600082013567ffffffffffffffff81111561538857615387614586565b5b61539484828501615326565b91505092915050565b600081519050919050565b600082825260208201905092915050565b6000819050602082019050919050565b60006153d58383614687565b60208301905092915050565b6000602082019050919050565b60006153f98261539d565b61540381856153a8565b935061540e836153b9565b8060005b8381101561543f57815161542688826153c9565b9750615431836153e1565b925050600181019050615412565b5085935050505092915050565b6000602082019050818103600083015261546681846153ee565b905092915050565b6000806040838503121561548557615484614581565b5b6000615493858286016145ac565b92505060206154a4858286016145ac565b9150509250929050565b600082825260208201905092915050565b60006154ca82614a18565b6154d481856154ae565b9350836020820285016154e685614a34565b8060005b8581101561552257848403895281516155038582614b54565b945061550e83614b68565b925060208a019950506001810190506154ea565b50829750879550505050505092915050565b6000602082019050818103600083015261554e81846154bf565b905092915050565b6000806040838503121561556d5761556c614581565b5b600061557b858286016145ac565b925050602061558c8582860161498f565b9150509250929050565b600081519050919050565b600082825260208201905092915050565b6000819050602082019050919050565b60006155ce8383614a44565b905092915050565b6000602082019050919050565b60006155ee82615596565b6155f881856155a1565b93508360208202850161560a856155b2565b8060005b85811015615646578484038952815161562785826155c2565b9450615632836155d6565b925060208a0199505060018101905061560e565b50829750879550505050505092915050565b6000602082019050818103600083015261567281846155e3565b905092915050565b60008060008060008060c0878903121561569757615696614581565b5b600087013567ffffffffffffffff8111156156b5576156b4614586565b5b6156c189828a01614de6565b965050602087013567ffffffffffffffff8111156156e2576156e1614586565b5b6156ee89828a01614de6565b955050604087013567ffffffffffffffff81111561570f5761570e614586565b5b61571b89828a01614de6565b945050606087013567ffffffffffffffff81111561573c5761573b614586565b5b61574889828a01614de6565b935050608087013567ffffffffffffffff81111561576957615768614586565b5b61577589828a01614de6565b92505060a087013567ffffffffffffffff81111561579657615795614586565b5b6157a289828a01614de6565b9150509295509295509295565b600081519050919050565b600082825260208201905092915050565b6000819050602082019050919050565b60e0820160008201516157f16000850182614687565b5060208201516158046020850182614ee4565b5060408201516158176040850182614ee4565b50606082015161582a6060850182614687565b50608082015161583d6080850182614687565b5060a082015161585060a0850182614687565b5060c082015161586360c0850182614687565b50505050565b600061587583836157db565b60e08301905092915050565b6000602082019050919050565b6000615899826157af565b6158a381856157ba565b93506158ae836157cb565b8060005b838110156158df5781516158c68882615869565b97506158d183615881565b9250506001810190506158b2565b5085935050505092915050565b60006020820190508181036000830152615906818461588e565b905092915050565b7f4e487b7100000000000000000000000000000000000000000000000000000000600052603260045260246000fd5b7f4e487b7100000000000000000000000000000000000000000000000000000000600052602260045260246000fd5b6000600282049050600182168061598457607f821691505b6020821081036159975761599661593d565b5b50919050565b7f4f6e6c792074686520636f6e7472616374206f776e65722063616e206372656160008201527f746520766f74652073657373696f6e732e000000000000000000000000000000602082015250565b60006159f960318361485c565b9150615a048261599d565b604082019050919050565b60006020820190508181036000830152615a28816159ec565b9050919050565b7f4e487b7100000000000000000000000000000000000000000000000000000000600052601160045260246000fd5b6000615a698261458b565b91507fffffffffffffffffffffffffffffffffffffffffffffffffffffffffffffffff8203615a9b57615a9a615a2f565b5b600182019050919050565b7f54686520766f74652073657373696f6e206973206e6f7420656e6465642e0000600082015250565b6000615adc601e8361485c565b9150615ae782615aa6565b602082019050919050565b60006020820190508181036000830152615b0b81615acf565b9050919050565b6000615b1d8261458b565b9150615b288361458b565b9250828201905080821115615b4057615b3f615a2f565b5b92915050565b7f4f6e6c792074686520636f6e7472616374206f776e65722063616e206164642060008201527f6a757279206d656d626572732e00000000000000000000000000000000000000602082015250565b6000615ba2602d8361485c565b9150615bad82615b46565b604082019050919050565b60006020820190508181036000830152615bd181615b95565b9050919050565b7f546865206164647265737320697320616c72656164792061206a757279206d6560008201527f6d6265722e000000000000000000000000000000000000000000000000000000602082015250565b6000615c3460258361485c565b9150615c3f82615bd8565b604082019050919050565b60006020820190508181036000830152615c6381615c27565b9050919050565b60008190508160005260206000209050919050565b60006020601f8301049050919050565b600082821b905092915050565b600060088302615ccc7fffffffffffffffffffffffffffffffffffffffffffffffffffffffffffffffff82615c8f565b615cd68683615c8f565b95508019841693508086168417925050509392505050565b6000819050919050565b6000615d13615d0e615d098461458b565b615cee565b61458b565b9050919050565b6000819050919050565b615d2d83615cf8565b615d41615d3982615d1a565b848454615c9c565b825550505050565b600090565b615d56615d49565b615d61818484615d24565b505050565b5b81811015615d8557615d7a600082615d4e565b600181019050615d67565b5050565b601f821115615dca57615d9b81615c6a565b615da484615c7f565b81016020851015615db3578190505b615dc7615dbf85615c7f565b830182615d66565b50505b505050565b600082821c905092915050565b6000615ded60001984600802615dcf565b1980831691505092915050565b6000615e068383615ddc565b9150826002028217905092915050565b615e1f82614696565b67ffffffffffffffff811115615e3857615e37614ce9565b5b615e42825461596c565b615e4d828285615d89565b600060209050601f831160018114615e805760008415615e6e578287015190505b615e788582615dfa565b865550615ee0565b601f198416615e8e86615c6a565b60005b82811015615eb657848901518255600182019150602085019450602081019050615e91565b86831015615ed35784890151615ecf601f891682615ddc565b8355505b6001600288020188555050505b505050505050565b6000615ef38261458b565b9150615efe8361458b565b9250828203905081811115615f1657615f15615a2f565b5b92915050565b7f54686520766f74652073657373696f6e206973206e6f7420737461727465642e600082015250565b6000615f5260208361485c565b9150615f5d82615f1c565b602082019050919050565b60006020820190508181036000830152615f8181615f45565b9050919050565b7f54686520766f74652073657373696f6e20697320656e6465642e000000000000600082015250565b6000615fbe601a8361485c565b9150615fc982615f88565b602082019050919050565b60006020820190508181036000830152615fed81615fb1565b9050919050565b7f5468652067616d65206973206e6f7420617661696c61626c6520666f7220746860008201527f697320726f756e642e0000000000000000000000000000000000000000000000602082015250565b600061605060298361485c565b915061605b82615ff4565b604082019050919050565b6000602082019050818103600083015261607f81616043565b9050919050565b7f596f75206861766520616c726561647920766f7465642074686973207475726e60008201527f2e00000000000000000000000000000000000000000000000000000000000000602082015250565b60006160e260218361485c565b91506160ed82616086565b604082019050919050565b60006020820190508181036000830152616111816160d5565b9050919050565b7f4f6e6c792074686520636f6e7472616374206f776e65722063616e2072656d6f60008201527f7665206a757279206d656d626572732e00000000000000000000000000000000602082015250565b600061617460308361485c565b915061617f82616118565b604082019050919050565b600060208201905081810360008301526161a381616167565b9050919050565b7f5468652061646472657373206973206e6f742061206a757279206d656d62657260008201527f2e00000000000000000000000000000000000000000000000000000000000000602082015250565b600061620660218361485c565b9150616211826161aa565b604082019050919050565b60006020820190508181036000830152616235816161f9565b9050919050565b60008154905061624b8161596c565b9050919050565b818103616260575050616338565b6162698261623c565b67ffffffffffffffff81111561628257616281614ce9565b5b61628c825461596c565b616297828285615d89565b6000601f8311600181146162c657600084156162b4578287015490505b6162be8582615dfa565b865550616331565b601f1984166162d487615c6a565b96506162df86615c6a565b60005b82811015616307578489015482556001820191506001850194506020810190506162e2565b868310156163245784890154616320601f891682615ddc565b8355505b6001600288020188555050505b5050505050505b565b7f4e487b7100000000000000000000000000000000000000000000000000000000600052603160045260246000fd5b7f4f6e6c792074686520636f6e7472616374206f776e65722063616e207374617260008201527f7420766f74652073657373696f6e732e00000000000000000000000000000000602082015250565b60006163c560308361485c565b91506163d082616369565b604082019050919050565b600060208201905081810360008301526163f4816163b8565b9050919050565b7f54686520766f74652073657373696f6e20646f6573206e6f742065786973742e600082015250565b600061643160208361485c565b915061643c826163fb565b602082019050919050565b6000602082019050818103600083015261646081616424565b9050919050565b7f54686520766f74652073657373696f6e20697320616c726561647920656e646560008201527f642e000000000000000000000000000000000000000000000000000000000000602082015250565b60006164c360228361485c565b91506164ce82616467565b604082019050919050565b600060208201905081810360008301526164f2816164b6565b9050919050565b7f54686520766f74652073657373696f6e2068617320616c72656164792073746160008201527f727465642e000000000000000000000000000000000000000000000000000000602082015250565b600061655560258361485c565b9150616560826164f9565b604082019050919050565b6000602082019050818103600083015261658481616548565b9050919050565b60006165968261458b565b91506165a18361458b565b92508282026165af8161458b565b915082820484148315176165c6576165c5615a2f565b5b5092915050565b7f4f6e6c792074686520636f6e7472616374206f776e65722063616e207061737360008201527f20746f20746865206e65787420726f756e642e00000000000000000000000000602082015250565b600061662960338361485c565b9150616634826165cd565b604082019050919050565b600060208201905081810360008301526166588161661c565b9050919050565b7f54686520766f7465206973206e6f7420737461727465642e0000000000000000600082015250565b600061669560188361485c565b91506166a08261665f565b602082019050919050565b600060208201905081810360008301526166c481616688565b9050919050565b7f4f776e61626c653a206e6577206f776e657220697320746865207a65726f206160008201527f6464726573730000000000000000000000000000000000000000000000000000602082015250565b600061672760268361485c565b9150616732826166cb565b604082019050919050565b600060208201905081810360008301526167568161671a565b9050919050565b7f4f776e61626c653a2063616c6c6572206973206e6f7420746865206f776e6572600082015250565b600061679360208361485c565b915061679e8261675d565b602082019050919050565b600060208201905081810360008301526167c281616786565b905091905056fea26469706673582212203d29f284eca19c2dfc920c916aaba3861af5761ae96d00634b7d417b098933aa64736f6c63430008110033",
  "linkReferences": {},
  "deployedLinkReferences": {}
}