{
  "_format": "hh-sol-artifact-1",
  "contractName": "Vote",
  "sourceName": "contracts/Vote.sol",
  "abi": [
    {
      "inputs": [],
      "name": "addCandidate",
      "outputs": [],
      "stateMutability": "nonpayable",
      "type": "function"
    },
    {
      "inputs": [
        {
          "internalType": "uint256",
          "name": "",
          "type": "uint256"
        }
      ],
      "name": "candidates",
      "outputs": [
        {
          "internalType": "address",
          "name": "",
          "type": "address"
        }
      ],
      "stateMutability": "view",
      "type": "function"
    },
    {
      "inputs": [],
      "name": "getWinner",
      "outputs": [
        {
          "internalType": "address",
          "name": "",
          "type": "address"
        }
      ],
      "stateMutability": "view",
      "type": "function"
    },
    {
      "inputs": [
        {
          "internalType": "address",
          "name": "candidat",
          "type": "address"
        }
      ],
      "name": "vote",
      "outputs": [],
      "stateMutability": "payable",
      "type": "function"
    },
    {
      "inputs": [
        {
          "internalType": "address",
          "name": "candidat",
          "type": "address"
        }
      ],
      "name": "voteWithERC20",
      "outputs": [],
      "stateMutability": "payable",
      "type": "function"
    },
    {
      "inputs": [
        {
          "internalType": "address",
          "name": "",
          "type": "address"
        }
      ],
      "name": "voters",
      "outputs": [
        {
          "internalType": "bool",
          "name": "",
          "type": "bool"
        }
      ],
      "stateMutability": "view",
      "type": "function"
    },
    {
      "inputs": [
        {
          "internalType": "address",
          "name": "",
          "type": "address"
        }
      ],
      "name": "votes",
      "outputs": [
        {
          "internalType": "uint256",
          "name": "",
          "type": "uint256"
        }
      ],
      "stateMutability": "view",
      "type": "function"
    },
    {
      "inputs": [],
      "name": "withdraw",
      "outputs": [],
      "stateMutability": "nonpayable",
      "type": "function"
    }
  ],
  "bytecode": "0x608060405234801561001057600080fd5b50610b95806100206000396000f3fe60806040526004361061007b5760003560e01c80638e7ea5b21161004e5780638e7ea5b214610107578063a3ec138d14610132578063d8bff5a51461016f578063e583b3b6146101ac5761007b565b80633477ee2e146100805780633ccfd60b146100bd5780636dd7d8ea146100d457806375043ebb146100f0575b600080fd5b34801561008c57600080fd5b506100a760048036038101906100a29190610822565b6101c8565b6040516100b49190610890565b60405180910390f35b3480156100c957600080fd5b506100d2610207565b005b6100ee60048036038101906100e991906108d7565b6102c5565b005b3480156100fc57600080fd5b5061010561044a565b005b34801561011357600080fd5b5061011c6104af565b6040516101299190610890565b60405180910390f35b34801561013e57600080fd5b50610159600480360381019061015491906108d7565b61062a565b604051610166919061091f565b60405180910390f35b34801561017b57600080fd5b50610196600480360381019061019191906108d7565b61064a565b6040516101a39190610949565b60405180910390f35b6101c660048036038101906101c191906108d7565b610662565b005b600181815481106101d857600080fd5b906000526020600020016000915054906101000a900473ffffffffffffffffffffffffffffffffffffffff1681565b61020f6104af565b73ffffffffffffffffffffffffffffffffffffffff163373ffffffffffffffffffffffffffffffffffffffff161461027c576040517f08c379a0000000000000000000000000000000000000000000000000000000008152600401610273906109c1565b60405180910390fd5b3373ffffffffffffffffffffffffffffffffffffffff166108fc479081150290604051600060405180830381858888f193505050501580156102c2573d6000803e3d6000fd5b50565b6000803373ffffffffffffffffffffffffffffffffffffffff1673ffffffffffffffffffffffffffffffffffffffff16815260200190815260200160002060009054906101000a900460ff1615610351576040517f08c379a000000000000000000000000000000000000000000000000000000000815260040161034890610a2d565b60405180910390fd5b670de0b6b3a7640000341461039b576040517f08c379a000000000000000000000000000000000000000000000000000000000815260040161039290610a99565b60405180910390fd5b60016000803373ffffffffffffffffffffffffffffffffffffffff1673ffffffffffffffffffffffffffffffffffffffff16815260200190815260200160002060006101000a81548160ff021916908315150217905550600260008273ffffffffffffffffffffffffffffffffffffffff1673ffffffffffffffffffffffffffffffffffffffff168152602001908152602001600020600081548092919061044290610ae8565b919050555050565b6001339080600181540180825580915050600190039060005260206000200160009091909190916101000a81548173ffffffffffffffffffffffffffffffffffffffff021916908373ffffffffffffffffffffffffffffffffffffffff160217905550565b600080600090506000805b600180549050811015610621578160026000600184815481106104e0576104df610b30565b5b9060005260206000200160009054906101000a900473ffffffffffffffffffffffffffffffffffffffff1673ffffffffffffffffffffffffffffffffffffffff1673ffffffffffffffffffffffffffffffffffffffff16815260200190815260200160002054111561060e57600260006001838154811061056457610563610b30565b5b9060005260206000200160009054906101000a900473ffffffffffffffffffffffffffffffffffffffff1673ffffffffffffffffffffffffffffffffffffffff1673ffffffffffffffffffffffffffffffffffffffff168152602001908152602001600020549150600181815481106105e0576105df610b30565b5b9060005260206000200160009054906101000a900473ffffffffffffffffffffffffffffffffffffffff1692505b808061061990610ae8565b9150506104ba565b50819250505090565b60006020528060005260406000206000915054906101000a900460ff1681565b60026020528060005260406000206000915090505481565b6000803373ffffffffffffffffffffffffffffffffffffffff1673ffffffffffffffffffffffffffffffffffffffff16815260200190815260200160002060009054906101000a900460ff16156106ee576040517f08c379a00000000000000000000000000000000000000000000000000000000081526004016106e590610a2d565b60405180910390fd5b670de0b6b3a76400003414610738576040517f08c379a000000000000000000000000000000000000000000000000000000000815260040161072f90610a99565b60405180910390fd5b60016000803373ffffffffffffffffffffffffffffffffffffffff1673ffffffffffffffffffffffffffffffffffffffff16815260200190815260200160002060006101000a81548160ff021916908315150217905550600260008273ffffffffffffffffffffffffffffffffffffffff1673ffffffffffffffffffffffffffffffffffffffff16815260200190815260200160002060008154809291906107df90610ae8565b919050555050565b600080fd5b6000819050919050565b6107ff816107ec565b811461080a57600080fd5b50565b60008135905061081c816107f6565b92915050565b600060208284031215610838576108376107e7565b5b60006108468482850161080d565b91505092915050565b600073ffffffffffffffffffffffffffffffffffffffff82169050919050565b600061087a8261084f565b9050919050565b61088a8161086f565b82525050565b60006020820190506108a56000830184610881565b92915050565b6108b48161086f565b81146108bf57600080fd5b50565b6000813590506108d1816108ab565b92915050565b6000602082840312156108ed576108ec6107e7565b5b60006108fb848285016108c2565b91505092915050565b60008115159050919050565b61091981610904565b82525050565b60006020820190506109346000830184610910565b92915050565b610943816107ec565b82525050565b600060208201905061095e600083018461093a565b92915050565b600082825260208201905092915050565b7f596f7520617265206e6f74207468652077696e6e657200000000000000000000600082015250565b60006109ab601683610964565b91506109b682610975565b602082019050919050565b600060208201905081810360008301526109da8161099e565b9050919050565b7f416c726561647920766f74656400000000000000000000000000000000000000600082015250565b6000610a17600d83610964565b9150610a22826109e1565b602082019050919050565b60006020820190508181036000830152610a4681610a0a565b9050919050565b7f596f75206e65656420746f207365656420312065746865720000000000000000600082015250565b6000610a83601883610964565b9150610a8e82610a4d565b602082019050919050565b60006020820190508181036000830152610ab281610a76565b9050919050565b7f4e487b7100000000000000000000000000000000000000000000000000000000600052601160045260246000fd5b6000610af3826107ec565b91507fffffffffffffffffffffffffffffffffffffffffffffffffffffffffffffffff8203610b2557610b24610ab9565b5b600182019050919050565b7f4e487b7100000000000000000000000000000000000000000000000000000000600052603260045260246000fdfea2646970667358221220e0410fee077b851c891875979d8dbe79c37e4e9e3d28eb4467f1bd6e5e8dc05164736f6c63430008110033",
  "linkReferences": {},
  "deployedLinkReferences": {}
}